:020000040800F2
:1000000010070020A10100084B230008F52200087A
:10001000492300087D120008BF23000800000000EB
:100020000000000000000000000000004F23000856
:100030007D150008000000004D2300085123000832
:10004000BB010008BB010008BB010008BB010008A0
:10005000BB010008BB010008BB010008BB01000890
:10006000BB010008BB010008BB010008BB01000880
:10007000BB010008BB010008BB010008BB01000870
:10008000BB010008BB0100089D110008BB0100086E
:10009000BB010008BB010008BB010008BB01000850
:1000A000BB010008BB010008BB010008BB01000840
:1000B000BB010008BB01000800000000BB010008F4
:1000C000BB0100080000000000000000BB010008A8
:1000D00000000000BB010008BB0100080000000098
:1000E000BB010008BB010008BB01000800F002F8DA
:1000F00000F047F80AA090E8000C82448344AAF17B
:100100000107DA4501D100F03CF8AFF2090EBAE878
:100110000F0013F0010F18BFFB1A43F0010318473B
:100120005828000078280000103A24BF78C878C109
:10013000FAD8520724BF30C830C144BF04680C60ED
:10014000704700000023002400250026103A28BF35
:1001500078C1FBD8520728BF30C148BF0B60704739
:10016000662902F0B583002070471FB500F0D8FA69
:1001700004000020002102F0C1F9E0601FBD10B5AD
:1001800010BD00F0CDFB1146FFF7EFFF02F03CF988
:1001900000F0EBFB03B4FFF7F2FF03BC00F02EFC12
:1001A0000948804709480047FEE7FEE7FEE7FEE70B
:1001B000FEE7FEE7FEE7FEE7FEE7FEE70448054947
:1001C000054A064B70470000BD230008ED000008FB
:1001D0001001002010070020100300201003002051
:1001E0000FB41CB5074B06AA7B44694600900598DE
:1001F00000F07DFA0020694600F08CFA1CBC5DF826
:1002000014FB0000290500002DE9F0410E460446CC
:10021000002020622046E168884730B3252805D0B9
:10022000D4E901219047206A401CF2E7E1682046AA
:1002300000278847050018D0A5F14100192802D8E9
:1002400020354FF400673246294620462760FFF7E5
:1002500087FF40B1012804D0F61D26F007060836B6
:10026000D8E7361DD6E72846DAE7206ABDE8F081F0
:100270004FF0000200B5134694469646203922BF3F
:10028000A0E80C50A0E80C50B1F12001BFF4F7AF8A
:10029000090728BFA0E80C5048BF0CC05DF804EB6C
:1002A000890028BF40F8042B08BF704748BF20F8DA
:1002B000022B11F0804F18BF00F8012B70477047D8
:1002C0007047704770472DE9FF4F0C461E464FF0B0
:1002D000FF378BB0D2E90001DDF860800A908A46D2
:1002E000C1F30A5505B93D46002108464FF000000C
:1002F000BAF1000F00F4400005DA00EB80004FF483
:10030000400101EA50004FEA9059B9F1010F00DDB8
:10031000B9460A9850EA4A000ED044F61050A5F2A9
:10032000FF3545432F14B8F1000F1ED07542291E2A
:100330001EDDC9F100021CE0B8F1010F4FF0000012
:1003400001D0302103E0F24305E02154401CB042CB
:10035000FBDB30460022002121540B99C1F80880B4
:10036000C1E900200FB0BDE8F08FBD1B6D1CDEE7BA
:100370004A4600DA694206A800F05CFA06AB93E848
:10038000070003AB83E8070050460A9900F03DFBE5
:100390008DE80700A0F500501F3800900398002D4D
:1003A0000ADD42F21F014A460844002303A90390D4
:1003B000684600F0A6FD09E0A0F500504A461F3847
:1003C000002303A90390684600F0B0FD8DE8070004
:1003D0000004000C03D04FF0FF30410800E010464D
:1003E000B8F1000F03D00022009215461EE0751EE2
:1003F00005D400F099F9303262556D1EF9D5B34637
:100400000122084302D000227F1C04E0207830281B
:1004100001D100227F1E002A099784D01DE0112DF2
:1004200007DA00F081F9303262556D1C50EA0102A2
:10043000F5D1084302D00098C8B10EE00021681E33
:1004400005E0235C625C63542254401E491C8142D7
:10045000F7DBAB46A81B401E0990002004F80B00F8
:100460000B98099AC0F80880C0E9002B7AE711269A
:100470004FF0000857E72DE9F04F88460446D21D9B
:1004800022F0070191B0D1E90001CDE90A0101F0A4
:1004900097FF02460B98C00F01D02D2007E020687F
:1004A000810701D52B2002E0202101EAC000032AA8
:1004B000099001D0072A05DB03464146204600F09B
:1004C00079F90BE12078800601D5E06900E006208B
:1004D000B8F1650F814606D0B8F1660F18D0B8F1B3
:1004E000670F70D131E00020B9F1110F009001DBEE
:1004F000112301E009F101030AAA01A90CA8FFF7E1
:10050000E2FEDDE90C70002609F10105834647E0B3
:1005100001204B4600904FF000470AAA01A90CA801
:10052000FFF7D1FEDDE90DB00C995D46002610B94C
:1005300009F101000D18B9EB050003D4C0F1FF3635
:1005400009F10105A5EB09002BE0B9F1010F01DA72
:100550004FF001090020B9F1110F0090484601DD6C
:10056000112300E003460AAA01A90CA8FFF7ABFE7D
:10057000DDE90C704D4600268346207800070AD43A
:10058000AB4500DA5D4601A8012D04DD411911F8E3
:10059000011C302907D04F4502DA17F1040F04DAA5
:1005A000012082460FE06D1EEEE7002F02DCED1BFE
:1005B0003E4403E0781CA84200DD7D1CB81B00F11E
:1005C000010A4FF000472078000703D4AA4501DB59
:1005D0004FF0FF3A0021B7F1004F0DF143088DF8BD
:1005E000431024D002202B23002F01DA7F422D2339
:1005F0000A21021EA0F1010000DC5FB197FBF1FCB3
:1006000097FBF1F201FB1C7C17460CF1300C08F84B
:1006100001CDEEE7A8F1010003702188090501D59D
:10062000452100E06521A0F1010800F8011C0998AE
:100630000FA9A1EB0807FF1D00B10120411901EB33
:10064000EA70A1693844081A401EA0612078C006EB
:1006500002D42046AFF30080099828B1D4E90121E3
:100660009047206A401C20622078C00622D5204690
:10067000AFF300801EE0002E04DBB34502DD01A8CD
:10068000805D00E03020D4E901219047206A401CC1
:100690002062761CAAF101005FEA000A0AD100F08C
:1006A0003FF8C0680168405CD4E901219047206AA6
:1006B000401C2062281EA5F10105DCDC07E0D4E91E
:1006C000012118F8010B9047206A401C2062381E57
:1006D000A7F10107F3DC2046AFF30080032011B03F
:1006E00041E6000001694A1C02610878704700B5C4
:1006F0008FB0CDE901310021059105497944CDE95B
:10070000031011466846FFF77FFD0FB000BD0000E3
:10071000E5FFFFFF0A6802F8010B0A60704700005E
:1007200000487047D000002030B5B0F10A024FEA0F
:10073000900E71F100034EEA817EB0EB0E0061EB8A
:1007400091014FEA101E4EEA017E10EB0E0041EBC4
:1007500011114FEA102E4EEA016E10EB0E0041EB24
:1007600011214FEA104E4EEA014E10EB0E0041EB04
:100770001141401841F100014FEAD00040EA4170B8
:100780004FEAD10110EB80054FEA810444EA9074EE
:1007900044EB01046D1944EB0404521BA3414FF0D8
:1007A000000348BF0A3200D530BD401C41F10001B2
:1007B00030BD00002DE9F0411F46044603260168C4
:1007C000072A01F4006004DB08B116A505E016A5B0
:1007D00003E008B115A500E015A521F01000206088
:1007E000A069C01EA0610FB1401EA0612046AFF3FA
:1007F00000804FB1D4E9012138469047206A401C5F
:100800002062C01C206206E0206AFAE7D4E90121D8
:1008100015F8010B9047761EF8D22046AFF3008002
:10082000BDE8F0814E414E006E616E00494E4600BB
:10083000696E66002DE9F047814616468AB0354854
:1008400078440DC88DE80D0032487844801C03AC14
:100850000DC884E80D0041F69B300844372190FB19
:10086000F1F290FBF1F5A5F1800501FB12041B3CB0
:1008700002D56442012000E00020DFF898A0804605
:100880000027FA44AAF1BE0A0EE0E0070AD0324679
:10089000684607EB470101230AEB810100F046FBA4
:1008A0008DE8070064107F1C002CEED1194F7F44A7
:1008B000AE3F19E0E80715D007EB04100DF1180A58
:1008C00090E80E008AE80E00C068F04201D1981945
:1008D00008903246012306A903A800F027FB03ABCA
:1008E00083E807006D10641C002DE3D14FF0010375
:1008F00032466946B8F1000F03A802D000F001FBB0
:1009000001E000F013FBC9E90001C9F808200AB0B2
:10091000BDE8F0871C21000000487047B0000020AF
:100920007546FFF7F9FFAE4605006946534620F0CD
:100930000700854618B020B5FFF740FCBDE8204011
:100940004FF000064FF000074FF000084FF0000B8B
:1009500021F00701AC46ACE8C009ACE8C009ACE83E
:10096000C009ACE8C0098D46704710B50446AFF326
:1009700000802046BDE81040FFF70CBC4FF0013C62
:1009800050F8042B51F8043B9A4221D1A2EB0C03FE
:10099000934313EACC1317D150F8042B51F8043BBE
:1009A0009A4215D1A2EB0C03934313EACC130BD15B
:1009B00050F8042B51F8043B9A4209D1A2EB0C03E6
:1009C000934313EACC13DBD04FF00000704700BF15
:1009D000D01A01BAB1FA81F101F0180122FA01F03E
:1009E000CB40C1F12001DBB2C0B2C01A2CFA01F336
:1009F000D11A914311EAC311E6D170470149182079
:100A0000ABBEFEE72600020070475FEA400C08BF5D
:100A100091F0000F4FEA8C234FEAC12243EA515173
:100A20004FEA1C5018BF00F5F0404FEA300018BFE5
:100A300041F000415FEA6C5C00F02980BCF1FF3FAF
:100A400008BF40F080407047130C06BF12044FF0FF
:100A5000100C4FF0000C130E04BF12020CF1080C26
:100A6000130F04BF12010CF1040C930F04BF92008A
:100A70000CF1020CD30F04BF52000CF1010C114613
:100A80004FF00002A0F11F00A0EB0C00704711F026
:100A9000004F08BF704731F000413FF4D5AF0B0C59
:100AA00006BF09044FF0100C4FF0000C0B0E04BFF2
:100AB00009020CF1080C0B0F04BF09010CF1040C26
:100AC0008B0F04BF89000CF1020CCB0F04BF49004F
:100AD0000CF1010CCCF12003A0EB0C0022FA03F383
:100AE00002FA0CF241EA030100F10100704720F024
:100AF0007F4C80EA030023F07F47ACEB070303F54C
:100B00007C5300F0004003F1FF032DE980494FEAD8
:100B1000154B09B44FEA144325EA0B4E24EA034867
:100B20000FF2042606EB132749083E785FEA3202EB
:100B300003FB0667C7F5000707FB06F64FEA5437C5
:100B40004FEAD64606F1020607FB066CCCF1005CC4
:100B50004FEA1C472CEA074C07FB06F40CFB06F592
:100B600004EB15464FEA961634BF00204FF00040C4
:100B70004FEAD13706FB07FC4FEA1C4C0CFB0BF786
:100B8000D21B03FB0CF761EB07010CFB0EF7B0EB7C
:100B9000074072EB17420CFB08F734BFA2EB074289
:100BA000B2EB074261EB17414FEA0C444FEA910761
:100BB00006FB07FC4FEA1C4C0CFB0BF7B0EBC740E5
:100BC00072EB573203FB0CF734BFA2EBC742B2EB18
:100BD000C74261EB57310CFB0EF7B0EBC70072EB6D
:100BE00057720CFB08F734BFA2EBC702B2EBC70287
:100BF00061EB5771039F4FEA816141EA921104EB67
:100C0000CC044FEAD1374FEA826206FB07FC42EA86
:100C100090124FEA80604FEA1C4C0CFB0BF7D21B82
:100C200003FB0CF761EB07010CFB0EF7B0EB074081
:100C300072EB17420CFB08F734BFA2EB0742B2EB92
:100C4000074261EB17414FEA8C554FEA910704EBDD
:100C50009C2406FB07FC4FEA1C4C0CFB0BF7B0EB8B
:100C6000C74072EB573203FB0CF734BFA2EBC7420D
:100C7000B2EBC74261EB57310CFB0EF7B0EBC7008C
:100C800072EB57720CFB08F734BFA2EBC702B2EB52
:100C9000C70261EB577115EB4C254FEA816141EAC0
:100CA00092114FEA82624FEAD13742EA901206FB74
:100CB00007FC44F100044FEA80604FEA1C4C0CFB37
:100CC0000BF7D21B03FB0CF761EB07010CFB0EF7D4
:100CD000B0EB074072EB17420CFB08F734BFA2EBF6
:100CE0000742B2EB074261EB174115EB1C154FEAC7
:100CF000813141EA92414FEA823242EA90424FEA20
:100D000080304FEA0C7644F1000448EA03434EEA8F
:100D10000B484FF0000EB2EB080C71EB030724BF39
:100D2000624639464EEB0E0E4FF0000B0018524152
:100D300049414BEB0B0BB2EB080C71EB03077BF15A
:100D4000000B24BF624639464EEB0E0E4FF0000BEF
:100D50000018524149414BEB0B0BB2EB080C71EB05
:100D600003077BF1000B24BF624639464EEB0E0EA3
:100D700051EA020718BF46F0010616EB0E7655F150
:100D8000000254F1000103D5BDE88901BDE80088E7
:100D9000BDE88901BDE80048B619524141EB0101A7
:100DA000A3F10103704780807F7E7D7C7B7A797818
:100DB000777676757473727171706F6E6E6D6C6C20
:100DC0006B6A6A69686867666665646463636261C2
:100DD0006160605F5F5E5E5D5D5C5C5B5B5A5A5943
:100DE00059585857575656555555545453535252AF
:100DF0005251515050504F4F4F4E4E4D4D4D4C4C07
:100E00004C4B4B4B4A4A4A4949494848484747474F
:100E1000474646464545454444444443434343428C
:100E2000424242414141002B9C4630D477002BD0B6
:100E30001CB54FEA370703B44FF010004FF0100114
:100E4000BAF1000F06D0BCF1000FDCBF40F0080083
:100E500040F008014FF000000FBCBDE810400BF15E
:100E6000010BBBF1010F08BF5FEA170722BF12F1A8
:100E7000010211F101014FF0004143F1000300F0C4
:100E8000004043EA00007047F9D35708D0E746EA2C
:100E9000064613F1400F4FEA16461FDD13F1200FEF
:100EA000DFBF16430A46002120335B42BED0C3F1A8
:100EB000200746EA064602FA07F74FEA164646EAD0
:100EC0000706C3F1200722FA03F201FA07F721FA15
:100ED00003F14FF0000342EA0702A7E746EA0206E1
:100EE00046EA06464FEA164646EA0106BCBF46EA0F
:100EF0000646360C4FF000034FF000024FF00001A1
:100F000094E72DE9804C9A46934670B491E83800F6
:100F100007C831EA400C48BF34EA430C03D5FFF759
:100F2000E6FDFFF780FFF0BCBDE8008C2DE9804CAA
:100F30009A46934670B491E8380007C810F0804F85
:100F400008BF13F0804F03D100F005F8FFF76BFFE7
:100F5000F0BCBDE8008C20F07F4780EA030023F05E
:100F60007F4C07EB0C03A3F57C5300F00040A3F18A
:100F7000FE0392F0000F00F0B38095F0000F00F038
:100F800077802DE901494FEA11404FEA144621EAE2
:100F9000004800FB06FC24EA064708FB06F607FBB0
:100FA00008F800FB07F718EB06484CEB164C4FEA25
:100FB000124B18EB07484FEA15464CEB174022EA54
:100FC0000B4E0BFB06FC25EA06470EFB06F607FB5D
:100FD0000EFE0BFB07F71EEB064E4CEB164C4FF0CC
:100FE00000061EEB074E4CEB174B18EB0B0840F1BD
:100FF000000018EB0E0B58EB000840F100008F1AB0
:101000004FF000013CBFC943661B14BFB5EB040C95
:1010100000213CBFC943F61B4FEA17444EEA8E0E2F
:1010200027EA04454FEA1C4704FB07622CEA074CF9
:1010300005FB07F70CFB05F604FB0CFC16EB07465B
:1010400042EB174216EB0C4642EB1C421BEB06062A
:1010500058EB0202414146EA9E0601D5BDE80189EE
:10106000B619524141EB0101A3F10103BDE8018929
:101070004FEA14454FEA114724EA054621EA074C96
:1010800005FB07F406FB07F70CFB06F105FB0CFC60
:1010900011EB074144EB17444FEA124711EB0C41A7
:1010A00044EB1C4422EA074C05FB07F206FB07F75A
:1010B0000CFB06F605FB0CFC16EB074642EB174251
:1010C00016EB0C4642EB1C456A1854F1000148BF70
:1010D0007047B619524141EB0101A3F1010370477A
:1010E00095F0000F37D04FEA11424FEA144721EA3A
:1010F000024624EA074C02FB07F106FB07F70CFB4C
:1011000006F402FB0CFC14EB074441EB17414FEAD9
:10111000154714EB0C4441EB1C4125EA074C02FB3C
:1011200007F506FB07F70CFB06F602FB0CFC16EBBB
:10113000074645EB174516EB0C4645EB1C421219CA
:1011400051F1000148BF7047B619524141EB01010E
:10115000A3F1010370474FEA14454FEA114724EA0F
:10116000054621EA074C05FB07F106FB07F70CFBD8
:1011700006F24FF0000605FB0CFC12EB074241EBB8
:10118000174112EB0C4251EB1C4148BF70479218BB
:1011900041EB0101A3F1010370470000014800F099
:1011A00090BA00001800002070B5044600688168FD
:1011B000C943C90717D1816821F00101816000F09E
:1011C00015FD05460AE000BF00F010FD401B022897
:1011D00004D920688068C043C00706D020688068B2
:1011E000C043C007F0D0002070BDA06A40F01000DE
:1011F000A062E06A40F00100E062012070BD0000E2
:10120000F8B500260446009600688168C943C907FE
:101210002DD0816841F001018160164816490068AF
:10122000B0FBF1F000E0401E00900028FBD100F080
:10123000DDFC054616E000BF00F0D8FC401B02288C
:1012400010D920688068C043C0070BD0A06A40F066
:101250001000A062E06A40F00100E06284F82460BF
:101260000120F8BD20688068C043C007E4D1002099
:10127000F8BD00001400002040420F00FEE72DE9F9
:10128000F05F0446DDE91090DDE90C65DDE90AC791
:10129000DDE90EEB4FF00008DDF84CA084F800808B
:1012A0006170A2706360A4F808C0E760268265637D
:1012B000A4F838E0C4F83CB0A4F8409060641298F8
:1012C000A4F84800C4F84CA01498A4F850002820B2
:1012D00084F85500062084F852000C2084F853004E
:1012E000142084F85400322000F088FB00223321BF
:1012F000204600F05BF8052000F080FB002233213F
:10130000204600F053F8052000F078FB002232213F
:10131000204600F04BF8052000F070FB94F85210C6
:101320000022204600F042F894F853100022204694
:1013300000F03CF894F854100022204600F036F8F3
:1013400094F855100022204600F030F800220121C8
:10135000204600F02BF82046BDE8F05F0022022175
:1013600000F024B808B510A31B68009343788B42A3
:1013700001D85B1ED9B28378934201D85B1EDAB2E2
:101380001DF8022011440278C9B2102A06D0002AA2
:1013900003D141F0800100F009F808BD41F080015F
:1013A000002200F078F808BD0040145470B50446DF
:1013B0000E090D4612B1012A04D008E0218900224D
:1013C000606802E021890122606800F009FC218F39
:1013D000606B06F001020C3400F002FCA18EC6F333
:1013E0004002206B00F0FCFBA18FC6F38002A06BD3
:1013F00000F0F6FBB4F84410F208206C00F0F0FBAB
:10140000A1880022206800F0EBFB012000F0F6FA32
:10141000A1880122206800F0E3FB012000F0EEFA31
:10142000A1880022206800F0DBFB012000F0E6FA32
:1014300005F00102A18DA06A00F0D2FBA18EC5F3D8
:101440004002206B00F0CCFBA18FC5F38002A06BA3
:1014500000F0C6FBB4F84410C5F3C002206C00F0E5
:10146000BFFBA1880022206800F0BAFB012000F039
:10147000C5FAA1880122206800F0B2FB012000F02B
:10148000BDFAA1880022206800F0AAFBBDE87040E8
:10149000012000F0B3BA70B50D46044612B1012A1E
:1014A00004D008E021890022606802E0218901223D
:1014B000606800F095FB218B606905F001020C3437
:1014C00000F08EFBA18AC5F34002206900F088FB82
:1014D000A18BC5F38002A06900F082FBA18CC5F34B
:1014E000C002206A00F07CFBA18DC5F30012A06A47
:1014F00000F076FBA18EC5F34012206B00F070FB6C
:10150000A18FC5F38012A06B00F06AFBEA09B4F862
:101510004410206C00F064FBA1880022206800F0D9
:101520005FFB012000F06AFAA1880122206800F028
:1015300057FB012000F062FAA1880022206800F029
:101540004FFBBDE87040012000F058BA0278102A25
:1015500004D0002A05D10122FFF728BF0122FFF79E
:101560009ABF704770B50C46054603E02846641CD8
:10157000FFF7ECFF21780029F8D170BD7047704764
:10158000F8B50024009490F824202546012A12D0B2
:10159000012280F824204A681F23072A0DD20668FA
:1015A000776B521E02EB820293409F430B6893407D
:1015B0001F43776319E00220F8BD06680D2A0AD29E
:1015C000376BD21F02EB820293409F430B6893401C
:1015D0001F43376309E0F76A0D3A02EB820293403A
:1015E0009F430B6893401F43F7620A68072306680E
:1015F0000A2A0AD3F7680A3A02EB420293409F4351
:101600008B6893401F43F76008E0376902EB4202A2
:1016100093409F438B6893401F4337610A68102AA9
:1016200001D0112A20D1124B02689A4217D1936837
:101630001B0219D4936843F40003936009681029CE
:1016400012D10C490C4A0968B1FBF2F101EB81019E
:10165000490000E0491E00910029FBD104E0816AA5
:1016600041F020018162012480F824502046F8BD19
:10167000002401401400002040420F0010B5006813
:10168000094988420ED1094800F018F8084C80B288
:10169000208001F03DF8074900F078FF064901F08D
:1016A0004BF8606010BD00000024014018000020CD
:1016B0000000002000F07F4500401C460068C06C20
:1016C000704710B5044600684168890626D5016850
:1016D000890723D5A16AC90603D4A16A41F4007120
:1016E000A1628168C1F34241072910D1217B71B900
:1016F000416821F020014160A06A20F48070A0625E
:10170000A06AC00403D4A06A40F00100A062204691
:10171000FFF7B4FF21686FF012000860206841688D
:1017200009062ED5016849072BD5A16AC90603D43D
:10173000A16A41F40051A1628168C1F30231072915
:1017400009D04168490515D48168C1F34241072990
:1017500010D1217B71B9416821F080014160A06AFC
:1017600020F48050A062A06AC00503D4A06A40F0B3
:101770000100A0622046FFF702FF21686FF00C0015
:1017800008602068416849060DD50068C0070AD086
:10179000A06A40F48030A062204600F093F82168EF
:1017A0006FF00100086010BD2DE9F0414FF0000717
:1017B00004003D467ED0A06A002628B9E66284F87F
:1017C0002460204600F080F82046FFF7EDFCA16A77
:1017D000C90600D420B1A06A40F01000A06269E000
:1017E000A16A21F4885141F00201A1626268E169B5
:1017F000237B0A4347EA43010A43A1684FF48077F9
:10180000B94209D0012907D05FF0000194F814C053
:10181000BCF1010F02D00AE03946F7E7F3B1A36A41
:1018200043F02003A362E36A43F00103E362236809
:10183000D3F804C02CF4694C4CEA010CC3F804C082
:1018400021688B68DFF870C003EA0C0313438B60D8
:10185000A168B9420BD0012909D00CE0DFF85CC0C7
:10186000A3690CEB43330B4343F40061DFE7218AA8
:101870000D05A5F580152168CB6A23F470032B4371
:10188000CB62216889680E4B1940914208D1E6620B
:10189000A16A21F0020141F00101A162BDE8F081DD
:1018A000A06A20F0020040F01000A062E06A40F060
:1018B0000100E0620120F1E7FDF7E1FF00E0FFFF3A
:1018C000FE0E1FFF7047000000B585B0002100919B
:1018D00001910291039100681249884220D1124877
:1018E000816941F400718161816901F400710491A1
:1018F000816941F0040181618069694600F004005A
:1019000004900120009003200190084800F088F81E
:1019100000221146122000F0D5F9122000F0C4F97F
:1019200005B000BD00240140001002400008014045
:1019300070B5044690F8240001280DD0012084F8E9
:1019400024002046FFF75CFC02004FF0000005D0A9
:1019500084F82400104670BD022070BDA16A40F6D4
:101960000163994341F48071A162224D23682249A9
:10197000AB4218D10E6816F4702F14D0A66A46F444
:101980008016A6620E68760505D5A66A26F400566E
:1019900046F48056A662A66AF6040AD5E66A26F0E0
:1019A0000606E66206E0A66A26F48016A6625E686F
:1019B000E9E7E06284F824006FF002001860206814
:1019C000436843F02003436020688368C3F34243C5
:1019D000072B05D1A84208D1096811F4702F04D053
:1019E000816841F480118160B4E7816841F4A0010D
:1019F000F9E70000002801400424014070B50446C6
:101A000000F0F4F80546601C02D004480078044455
:101A100000F0ECF8401BA042FAD370BD0800002093
:101A20002DE9F84FDFF89C91002409F1040A0AF12E
:101A3000040B23460F270BF1040EBBE00125A54044
:101A40002A40AA4276D1DFF880C14E68A6EB0C0886
:101A500066452BD00DDC032E34D005DC36B3012EC9
:101A600019D0022E2FD11BE0112E16D0122E2AD102
:101A700019E0B8F5881F19D006DCB8F5803F15D0FD
:101A8000B8F5801F1FD111E0B8F5001F0ED0B8F5D2
:101A9000041F18D10AE0CB6815E0CB681B1D12E0CB
:101AA000CB6808330FE0CB680C330CE08B682BB1AC
:101AB000012B4FF0080303D0456104E0042302E04A
:101AC000056100E00023FF2A01D8064601E000F18D
:101AD00004064FEA840501D9A5F12005D6F8008057
:101AE00007FA05FC28EA0C0803FA05F548EA050898
:101AF000C6F800804D68ED005BD5344DAE6946F008
:101B00000106AE61AD6924F0030605F001050095FC
:101B10002F4D06EB050CDCF80850A607360F07FA28
:101B200006F825EA0805DFF8AC80404503D14FF000
:101B3000000810E03DE0DFF8A080404502D14FF002
:101B4000010808E0DFF89480404502D14FF0020818
:101B500001E04FF0030808FA06F848EA0508CCF857
:101B600008804D68D9F80060ED034D4601D5164355
:101B700000E096432E604D68DAF80060AD035546EC
:101B800001D5164300E096432E604D68DBF80060F7
:101B9000ED025D4601D5164300E096432E604D6888
:101BA000DEF80060AD02754601D5164300E09643AD
:101BB0002E60641C0A6832FA04F57FF43FAFBDE87A
:101BC000F88F0000000401400000111000100240D6
:101BD0000000014000080140000C014000100140DD
:101BE0000AB1016170470904FBE700000148806801
:101BF0007047000008000020024881680278114404
:101C00008160704708000020074810B5016841F066
:101C100010010160032000F075F80F2000F006F8B5
:101C200000F024F8002010BD0020024070B50D4DDA
:101C300004464FF47A712878B1FBF0F00A4909683C
:101C4000B1FBF0F000F042FB48B9102C07D20022A3
:101C50002146501E00F036F800206C6070BD012057
:101C600070BD000008000020140000200C4808B5DA
:101C7000816941F001018161816901F001010091F7
:101C8000C16941F08051C161C06900F0805000908D
:101C90000448416821F0E06141F08061416008BD85
:101CA0000010024000000140002809DB00F01F0284
:101CB000012191404009800000F1E020C0F80011AE
:101CC00070470000F0B40E4B1B680C46C3F30223B0
:101CD000C3F10705042D00D90425191D072901D2D8
:101CE000002300E0DB1E012606FA05F1491E214013
:101CF00099409E40761E16403143F0BC00F074BB04
:101D00000CED00E0064900F0070208684FF6FF03FB
:101D1000184040EA0220034A104308607047000060
:101D20000CED00E00000FA052DE9F84305460078C7
:101D3000354CC00754D0E0690026C00008D4E069E3
:101D400040F08050E061E069012600F08050009092
:101D50002E480168C90512D40168804641F480719B
:101D60000160FFF743FF074605E000BFFFF73EFFB6
:101D7000C01B642823D8D8F80000C005F6D5206A17
:101D800010F4407021D0A98801F4407181421CD028
:101D9000206A1F49012220F440700A6000220A6074
:101DA0002062C00711D0FFF721FF074641F28838B3
:101DB00008E000BFFFF71AFFC11B414502D903200D
:101DC000BDE8F883206A8007F4D5206A696820F4AA
:101DD0004070084320621EB1E06920F08050E0614D
:101DE0002878800705D56068A96820F4404008433A
:101DF00060602878C00605D56068E96820F4800036
:101E0000084360600020DBE70010024000700040E3
:101E1000400442422DE9F0470F46050061D0434E91
:101E2000306800F00700B84209D2306820F007009F
:101E300038433060306800F00700B84251D128685C
:101E40003B4C810712D5400703D5606840F4E06041
:101E500060602878000703D5606840F460506060D7
:101E60006068A96820F0F000084360602878C00727
:101E700028D06868012810D02168022810D089076E
:101E800000292EDA616821F0030101436160FFF748
:101E9000ADFE804641F288390DE021688903EFE705
:101EA0008901EDE7FFF7A2FEA0EB0801494502D941
:101EB0000320BDE8F0876068696800F00C00B0EBB3
:101EC000810FEFD1306800F00700B8420BD93068BD
:101ED00020F0070038433060306800F00700B84257
:101EE00001D00120E5E72878400705D56068E9685A
:101EF00020F4E060084360602878000706D5606839
:101F0000296920F4605040EAC100606000F018F8D0
:101F10006168084AC1F30311515CC8400649086072
:101F200006480068FFF782FE0020C2E7002002405A
:101F300000100240D4280008140000200C000020EB
:101F400012A185B00FC98DE80F0014A0144A0068D3
:101F500004905168134801F00C03042B10D0082B97
:101F60000ED1C1F38343C9031DF803000AD551689C
:101F700004AAC1F34041515C0A4A5043B0FBF1F05E
:101F800005B0704708494843FAE70000020304051A
:101F9000060708090A0B0C0D0E0F101001020000B5
:101FA0000010024000127A0000093D002DE9F84FB0
:101FB000040070D02078C04DC00749D06868C0F3D5
:101FC0008100012807D06868C0F38100022809D188
:101FD0006868C00306D52868800339D56068002882
:101FE000E7D035E06068B0F5803F0BD010B1B0F5B8
:101FF000A02F11D0286820F480302860286820F4B1
:10200000802002E0286840F480302860606890B149
:10201000FFF7ECFD06460AE0286840F480202860BF
:10202000F0E700BFFFF7E2FD801B642873D8286843
:102030008003F7D50CE0FFF7D9FD064605E000BFA9
:10204000FFF7D4FD801B6428F0D828688003F7D4FC
:1020500020789A4E80074FF001094FF0000839D5DB
:10206000686810F00C0F07D06868C0F38100022880
:1020700009D16868C00306D42868800714D5206990
:10208000012808D110E02069B0B1C6F80090FFF730
:10209000ADFD074605E00AE1FFF7A8FDC01B0228D9
:1020A000C4D828688007F7D52868616920F0F8004F
:1020B00040EAC10028600DE0C6F80080FFF796FDF9
:1020C000074604E0FFF792FDC01B022823D82868CA
:1020D0008007F7D4207800072CD57948A169D9B1B9
:1020E000C0F80090FFF782FD074604E0FFF77EFD91
:1020F000C01B02280FD8686A8007F7D571484FF4D3
:10210000FA510068B0FBF1F0009000BF0098411E4A
:102110000091FAD20EE080E0C0F80080FFF766FD83
:10212000074604E0FFF762FDC01B022875D8686A05
:102130008007F7D42078400760D5E8690027C00001
:1021400008D4E86940F08050E861E869012700F0B0
:10215000805000905C480168C90513D4016883462B
:1021600041F480710160FFF741FD824606E000BF47
:10217000FFF73CFDA0EB0A0064284ED8DBF8000016
:10218000C005F5D5E06801280AD008B1052813D0AC
:10219000286A20F001002862286A20F0040002E08A
:1021A000286A40F001002862E06841F2883B98B15B
:1021B000FFF71CFD82460BE0286A40F0040028620D
:1021C000EEE700BFFFF712FDA0EB0A0159455AD810
:1021D000286A8007F6D50CE0FFF708FD824605E087
:1021E000FFF704FDA0EB0A0159454CD8286A800787
:1021F000F6D41FB1E86920F08050E861E06988B347
:102200006968C1F38101022944D00228C6F86080C0
:1022100004D0FFF7EBFC044638E034E0FFF7E6FCBF
:10222000074604E0FFF7E2FCC01B02282BD8286811
:102230008001F7D4206AB0F5803F05D16868A168B5
:1022400020F4003008436860D4E908010843696855
:1022500021F4741108436860C6F86090FFF7C6FC6B
:10226000044606E025E000BFFFF7C0FC001B022883
:1022700009D828688001F7D51BE000BFFFF7B6FC3E
:10228000001B022802D90320BDE8F88F28688001CE
:10229000F4D40EE00128F7D06868226A00F4803197
:1022A000914204D1616A00F47010884201D001208B
:1022B000EAE70020E8E70000001002400000424288
:1022C00080044242140000200070004010B5401EFF
:1022D000B0F1807F01D3012010BD4FF0E024606198
:1022E0000F21601700F080F80020A0610720206116
:1022F000002010BDFEE700003EB500241148009408
:10230000019402940E4984600160047304750125F0
:1023100005614FF460214460C161FFF745FA08B1DF
:1023200072B6FEE707200094CDE9015069460548E2
:10233000FFF726F9002801D072B6FEE73EBD000087
:102340000024014018000020FEE7FEE770477047B8
:10235000FFF752BC30B593B028216846FDF788FFDF
:1023600014210AA8FDF784FF002401200F94022500
:1023700004900095102011940590109412940794E5
:102380006846FFF713FE08B172B6FEE70F20CDE9ED
:102390000A040C940D9400210AA80E94FFF73AFD4C
:1023A00008B172B6FEE70FA80F951194FFF7BCFCB9
:1023B000002801D072B6FEE713B030BD7047FEE7CB
:1023C000490050EAC12018BF04204A0D18BF40F050
:1023D000010040F2FF72B2EB515F08BF40F0020013
:1023E000012808BF052070470907090E002804DBF3
:1023F00000F1E02080F80014704700F00F0000F1B9
:10240000E02080F8141D70478CB0FFF7FDFBFFF74C
:10241000A1FF00253148009501950295039581693A
:1024200041F00401816180692D4C00F004004FF4FB
:102430007C7604902A4631462046FFF7D1FB0120E6
:102440000096CDE901050220039069462046FFF77A
:10245000E7FAFFF751FF4021CDE907418020CDE9A0
:1024600009401021CDE903412020CDE905400001BC
:1024700041100091CDE90140234602221021194864
:10248000FEF7FDFE184C4FF47A7516483038FFF70A
:102490004FFA3220FFF7B2FA002211461148FEF738
:1024A00061FF12A10F48FFF75DF8606800F042F885
:1024B00002460C480B4610A15830FDF791FE012250
:1024C00000210848FEF74EFF064906485831FFF73D
:1024D00049F82846FFF792FAD7E7000000100240BB
:1024E0000008014048000020000000204269656E9D
:1024F0002074726F3A2000002566000010B5002994
:102500000AD00878002807D005487844FEF736FA44
:10251000002801D0002010BD0248784410BD000002
:102520008E040000860400000808A0F500114FEAA0
:102530003101704743004FEAD30C4FEA3C0C434053
:102540001FBF40070CF1605113F0FE4F70471CF0A5
:10255000006F03D100200CF0004170470CF00043E5
:1025600043EA507010B540EACC0000F066F900BFB5
:10257000000000924FEA0001FFF7D6BF4FF0004184
:102580004FF00000A1F50021704700004FF47F0CD0
:102590001CEAD0121EBF1CEAD11392EA0C0F93EA78
:1025A0000C0F00F0858090EA010F48BF42F4807262
:1025B00040F4000C41F400002CF07F4120F07F40FB
:1025C00000B58142A2EB03020FF2081CACEB504EA7
:1025D000C0F100009EF800E04FEA4E0E00FB0EFC3A
:1025E00038BF49004FEA2C1C02F5FA020CFB0EF32F
:1025F0004FEACE1E4FEA112C4FEAC1210EEB635E6B
:1026000042EB22420EFB0CFC4FEA1C5300FB031171
:102610004FEA112C4FEA01310EFB0CFC4FEADC4C67
:1026200000FB0C11C14228BF09184CEB03335DF8C5
:1026300004EB10EB410143EBC250B2F57C0F38BF05
:10264000704729D512F0F00F1CBF00F1C04000F018
:1026500000407047008182838485868788898B8CBF
:102660008D8E8F919293959697999A9C9D9FA0A2FB
:10267000A3A5A7A8AAACAEB0B2B3B5B7B9BCBEC04B
:10268000C2C5C7C9CCCED1D4D7D9DCDFE2E6E9ECEC
:10269000F0F3F7FAFE0000004FEA400C0CF1807CEA
:1026A000BCF17E4F28BF7047B0F1C04000F00BB9BD
:1026B00090EA010F0CEAD11348BF42F480726245E0
:1026C00038BF634507D213F47F0F16D080EA0100AC
:1026D00000F00040704710B500F0AFF8097EFC3EF6
:1026E00000F005B880EA010000F00040704780EA81
:1026F000010000F0004000F0E6B812F47F0F04BFC4
:102700000248704780EA010000F0DDB80000C07F99
:10271000B0FA80F310FA03F2C3F19D030AD0D90591
:1027200001EB1220530638BF704700F1010008BFCB
:1027300020F00100704700004FF47F0C1CEAD0121B
:102740001EBF1CEAD11392EA0C0F93EA0C0F00F0A3
:10275000478090EA010F48BF42F480724FF0004C6E
:102760004CEA00204CEA012102EB0302A0FB01131A
:10277000A2F50002002918BF43F001035B0028BF47
:102780004FEA330342EB22425FEA132C4CEBC25078
:102790002EBFBCEB436FB2F57C0F70474FEA036C62
:1027A000BCF1004F08BF20F00100B2F57C0F38BF2C
:1027B00070470BD582F0FF0212F5803FC8BF70470B
:1027C00000F1C040D8BF00F00040704700F5000C99
:1027D0005FEA4C0C48BF7047B0F1C04000F073B8DE
:1027E00090EA010F0CEAD11348BF42F480726245AF
:1027F00038BF634504D280EA010000F00040704712
:1028000010B500F01AF800BF8900013E00F007B8CB
:1028100000F009B85FEA410C5FEA1C6C08D080EA5E
:10282000010000F050B85FEA400C5FEA1C6CF6D182
:102830004FF00040A0F5800070470EF1020E2EF020
:10284000030E5EF8044B244204D44FEA4102B2F175
:102850007F4F11D84FEA4003B3F17F4F0CD80ED110
:102860004FEAD07CB2F17F4F0CEB4C0C0CF1020C18
:1028700008BF4CEBD17C04E04FF0080C01E04FEABC
:10288000D17C0CEB4C0324FA03F404F00704B4F1FC
:10289000040C06D20EEB840CBDE810404CF0010C89
:1028A0006047DFE80CF0070802024FF00040A0F597
:1028B000800010BD0846420018BFD2F1807288BF68
:1028C00000F0004010BDFF2141EAD050C005704724
:1028D000FDF7D1BD0000000000000000010203046C
:1028E0000607080902400000000000A000000000E8
:1028F00005400000000000C8000000000C4000007F
:102900000000409C00000000194000000020BCBEF8
:102910000000000034400000BFC91B8E000000040E
:10292000B5400000504BCFD06607E2CF0100000059
:102930006C4100003E8251AADFEEA7340100000086
:10294000D9420000DCB5A0E23A301F97FFFFFFFF3D
:10295000B4450000FD25A0C8E9A3C14FFFFFFFFF5C
:10296000FF3F00000000008000000000FF3F00006B
:102970000000008000000000B429000800000020D2
:102980001800000028010008CC29000818000020C9
:10299000F8060000440100081C000000430000008D
:1029A000F8FFFFFF0C0000000E0000000F00000009
:1029B0002E000000000000000000000001000000E8
:0C29C00010000000000000000024F400E3
:04000005080000ED02
:00000001FF
