:020000040800F2
:1000000010070020910100082D160008291600088D
:100010002B160008B9050008A11600080000000012
:100020000000000000000000000000003116000881
:10003000B9080008000000002F1600083316000859
:10004000AB010008AB010008AB010008AB010008E0
:10005000AB010008AB010008AB010008AB010008D0
:10006000AB010008AB010008AB010008AB010008C0
:10007000AB010008AB010008AB010008AB010008B0
:10008000AB010008AB01000891040008AB010008B7
:10009000AB010008AB010008AB010008AB01000890
:1000A000AB010008AB010008AB010008AB01000880
:1000B000AB010008AB01000800000000AB01000824
:1000C000AB0100080000000000000000AB010008C8
:1000D00000000000AB010008AB01000800000000B8
:1000E000AB010008AB010008AB01000800F002F80A
:1000F00000F03FF80AA090E8000C82448344AAF183
:100100000107DA4501D100F034F8AFF2090EBAE880
:100110000F0013F0010F18BFFB1A43F0010318473B
:100120001C1700003C170000103A24BF78C878C1A3
:10013000FAD8520724BF30C830C144BF04680C60ED
:10014000704700000023002400250026103A28BF35
:1001500078C1FBD8520728BF30C148BF0B60704739
:10016000642900F07D80002070471FB51FBD10B5C9
:1001700010BD00F052F91146FFF7F7FF01F0A2FAA7
:1001800000F070F903B4FFF7F2FF03BC00F078F958
:100190000948804709480047FEE7FEE7FEE7FEE71B
:1001A000FEE7FEE7FEE7FEE7FEE7FEE70448054957
:1001B000054A064B704700009F160008ED00000836
:1001C0001001002010070020100300201003002061
:1001D0000FB41CB5074B06AA7B44694600900598EE
:1001E00000F003F90020694600F012F91CBC5DF82C
:1001F00014FB0000350200002DE9F0410E460446D4
:10020000002020622046E168884730B3252805D0C9
:10021000D4E901219047206A401CF2E7E1682046BA
:1002200000278847050018D0A5F14100192802D8F9
:1002300020354FF400673246294620462760FFF7F5
:100240008FFF40B1012804D0F61D26F007060836BE
:10025000D8E7361DD6E72846DAE7206ABDE8F08100
:100260002DE9F0410646002410687529314616A58F
:1002700010D0AFF30080002802DA404213A507E057
:1002800031688A0701D512A502E0490704D511A5F6
:10029000012401E0AFF3008000210A2206F12407C7
:1002A00009E0B0FBF2FCB0FBF2F302FB1C003030C3
:1002B00078541846491C0028F3D123462A46304674
:1002C000BDE8F04100F032B8000000002D00000051
:1002D0002B000000200000004FF0000200B5134684
:1002E00094469646203922BFA0E80C50A0E80C5056
:1002F000B1F12001BFF4F7AF090728BFA0E80C5007
:1003000048BF0CC05DF804EB890028BF40F8042BFF
:1003100008BF704748BF20F8022B11F0804F18BF6C
:1003200000F8012B70477047704770472DE9F04780
:100330000D4699469246044600F124080168880655
:1003400004D5E06921F01001216000E00120A842FD
:1003500001DD471B00E00027A1697A1902EB0900C3
:10036000081AA0612078C00602D42046AFF30080AE
:10037000002608E0D4E901211AF806009047206A17
:10038000401C761C20624E45F4DB2078C0060AD55E
:100390002046AFF3008006E0D4E9012130209047E9
:1003A000206A401C2062381EA7F10107F4DC07E038
:1003B000D4E9012118F805009047206A401C20620A
:1003C000281EA5F10105F3DC2046AFF3008020785C
:1003D000000602D50220BDE8F0870120FBE70000FF
:1003E00001694A1C02610878704700B58FB0CDE9F9
:1003F00001310021059105497944CDE903101146E9
:100400006846FFF7F9FE0FB000BD0000E5FFFFFFF3
:100410000A6802F8010B0A607047754600F02CF874
:10042000AE4605006946534620F00700854618B0E1
:1004300020B5FFF7BBFEBDE820404FF000064FF0AF
:1004400000074FF000084FF0000B21F00701AC4609
:10045000ACE8C009ACE8C009ACE8C009ACE8C00928
:100460008D46704710B50446AFF300802046BDE8C6
:100470001040FFF787BE000000487047B000002022
:1004800001491820ABBEFEE72600020070470000BD
:10049000014800F0B0BA00001800002070B5044612
:1004A00000688168C943C90717D1816821F001013B
:1004B000816000F035FD05460AE000BF00F030FD28
:1004C000401B022804D920688068C043C00706D0BA
:1004D00020688068C043C007F0D0002070BDA06ACB
:1004E00040F01000A062E06A40F00100E0620120EC
:1004F00070BD0000F8B500260446009600688168CB
:10050000C943C9072DD0816841F0010181601648B7
:1005100016490068B0FBF1F000E0401E0090002892
:10052000FBD100F0FDFC054616E000BF00F0F8FC32
:10053000401B022810D920688068C043C0070BD038
:10054000A06A40F01000A062E06A40F00100E062A2
:1005500084F824600120F8BD20688068C043C0078B
:10056000E4D10020F8BD00001400002040420F003C
:100570000EB50020009001200190062002906946EF
:10058000034800F09BF9002801D072B6FEE70EBDCB
:10059000180000200EB50120009001900720029065
:1005A0006946044800F08AF9002801D072B6FEE7D7
:1005B0000EBD000018000020FEE72DE9F05F0446A4
:1005C000DDE91090DDE90C65DDE90AC7DDE90EEB38
:1005D0004FF00008DDF84CA084F800806170A27034
:1005E0006360A4F808C0E76026826563A4F838E079
:1005F000C4F83CB0A4F8409060641298A4F8480095
:10060000C4F84CA01498A4F85000282084F8550091
:10061000062084F852000C2084F85300142084F83B
:100620005400322000F084FB00223321204600F0E9
:100630005BF8052000F07CFB00223321204600F00F
:1006400053F8052000F074FB00223221204600F010
:100650004BF8052000F06CFB94F852100022204665
:1006600000F042F894F853100022204600F03CF8C5
:1006700094F854100022204600F036F894F85510F3
:100680000022204600F030F800220121204600F030
:100690002BF82046BDE8F05F0022022100F024B8CC
:1006A00008B510A31B68009343788B4201D85B1EEA
:1006B000D9B28378934201D85B1EDAB21DF80220CA
:1006C00011440278C9B2102A06D0002A03D141F0A1
:1006D000800100F009F808BD41F08001002200F01F
:1006E00078F808BD0040145470B504460E090D4654
:1006F00012B1012A04D008E021890022606802E0DA
:1007000021890122606800F005FC218F606B06F0F2
:1007100001020C3400F0FEFBA18EC6F34002206BF8
:1007200000F0F8FBA18FC6F38002A06B00F0F2FB93
:10073000B4F84410F208206C00F0ECFBA188002211
:10074000206800F0E7FB012000F0F2FAA188012206
:10075000206800F0DFFB012000F0EAFAA188002207
:10076000206800F0D7FB012000F0E2FA05F001025A
:10077000A18DA06A00F0CEFBA18EC5F34002206BD4
:1007800000F0C8FBA18FC5F38002A06B00F0C2FB94
:10079000B4F84410C5F3C002206C00F0BBFBA18884
:1007A0000022206800F0B6FB012000F0C1FAA18809
:1007B0000122206800F0AEFB012000F0B9FAA18808
:1007C0000022206800F0A6FBBDE87040012000F088
:1007D000AFBA70B50D46044612B1012A04D008E044
:1007E00021890022606802E021890122606800F00E
:1007F00091FB218B606905F001020C3400F08AFB4B
:10080000A18AC5F34002206900F084FBA18BC5F3E7
:100810008002A06900F07EFBA18CC5F3C002206AB3
:1008200000F078FBA18DC5F30012A06A00F072FB06
:10083000A18EC5F34012206B00F06CFBA18FC5F3B5
:100840008012A06B00F066FBEA09B4F84410206C3B
:1008500000F060FBA1880022206800F05BFB012013
:1008600000F066FAA1880122206800F053FB012005
:1008700000F05EFAA1880022206800F04BFBBDE882
:100880007040012000F054BA0278102A04D0002AE7
:1008900005D10122FFF728BF0122FFF79ABF704759
:1008A00070B50C46054603E02846641CFFF7ECFFD4
:1008B00021780029F8D170BD70477047F8B5002441
:1008C000009490F824202546012A12D0012280F8B5
:1008D00024204A681F23072A0DD20668776B521E10
:1008E00002EB820293409F430B6893401F43776360
:1008F00019E00220F8BD06680D2A0AD2376BD21F14
:1009000002EB820293409F430B6893401F4337637F
:1009100009E0F76A0D3A02EB820293409F430B68AD
:1009200093401F43F7620A68072306680A2A0AD31E
:10093000F7680A3A02EB420293409F438B68934068
:100940001F43F76008E0376902EB420293409F4380
:100950008B6893401F4337610A68102A01D0112A1F
:1009600020D1124B02689A4217D193681B0219D406
:10097000936843F4000393600968102912D10C496D
:100980000C4A0968B1FBF2F101EB8101490000E07A
:10099000491E00910029FBD104E0816A41F0200149
:1009A0008162012480F824502046F8BD00240140D3
:1009B0001400002040420F0070B5006809498842C9
:1009C0000ED1094CA51C207818B9084800F010F881
:1009D00028802078012803D1044800F009F86880B5
:1009E00070BD00000024014000000020180000201D
:1009F0000068C06C704710B50446006841688906FD
:100A000026D50168890723D5A16AC90603D4A16A3E
:100A100041F40071A1628168C1F34241072910D1FC
:100A2000217B71B9416821F020014160A06A20F466
:100A30008070A062A06AC00403D4A06A40F00100E4
:100A4000A0622046FFF7B8FF21686FF0120008602F
:100A50002068416809062ED5016849072BD5A16A8F
:100A6000C90603D4A16A41F40051A1628168C1F3AF
:100A70000231072909D04168490515D48168C1F3BD
:100A80004241072910D1217B71B9416821F08001D1
:100A90004160A06A20F48050A062A06AC00503D41F
:100AA000A06A40F00100A0622046FFF706FF21681F
:100AB0006FF00C0008602068416849060DD5006899
:100AC000C0070AD0A06A40F48030A062204600F03F
:100AD00093F821686FF00100086010BD2DE9F04126
:100AE0004FF0000704003D467ED0A06A002628B9DA
:100AF000E66284F82460204600F080F82046FFF784
:100B0000CDFCA16AC90600D420B1A06A40F0100053
:100B1000A06269E0A16A21F4885141F00201A1625A
:100B20006268E169237B0A4347EA43010A43A168FB
:100B30004FF48077B94209D0012907D05FF0000156
:100B400094F814C0BCF1010F02D00AE03946F7E76F
:100B5000F3B1A36A43F02003A362E36A43F0010305
:100B6000E3622368D3F804C02CF4694C4CEA010C0E
:100B7000C3F804C021688B68DFF870C003EA0C0377
:100B800013438B60A168B9420BD0012909D00CE056
:100B9000DFF85CC0A3690CEB43330B4343F4006103
:100BA000DFE7218A0D05A5F580152168CB6A23F4BE
:100BB00070032B43CB62216889680E4B1940914228
:100BC00008D1E662A16A21F0020141F00101A162AF
:100BD000BDE8F081A06A20F0020040F01000A062A1
:100BE000E06A40F00100E0620120F1E7FDF7E1FF7B
:100BF00000E0FFFFFE0E1FFF7047000000B585B04C
:100C000000210091019102910391006812498842EC
:100C10001FD11248816941F400718161816901F439
:100C200000710491816941F0040181618069694624
:100C300000F004000490032000900190084800F0A8
:100C400089F800221146122000F0D6F9122000F097
:100C5000C5F905B000BD00000024014000100240AD
:100C60000008014070B5044690F8240001280DD01A
:100C7000012084F824002046FFF73CFC02004FF0DE
:100C8000000005D084F82400104670BD022070BD1D
:100C9000A16A40F60163994341F48071A162224D3B
:100CA00023682249AB4218D10E6816F4702F14D075
:100CB000A66A46F48016A6620E68760505D5A66A71
:100CC00026F4005646F48056A662A66AF6040AD5B3
:100CD000E66A26F00606E66206E0A66A26F48016B4
:100CE000A6625E68E9E7E06284F824006FF0020023
:100CF00018602068436843F02003436020688368DD
:100D0000C3F34243072B05D1A84208D1096811F467
:100D1000702F04D0816841F480118160B4E781684C
:100D200041F4A001F9E7000000280140042401403B
:100D300070B5044600F0F4F80546601C02D0044883
:100D40000078044400F0ECF8401BA042FAD370BDD8
:100D5000080000202DE9F84FDFF89C91002409F1EC
:100D6000040A0AF1040B23460F270BF1040EBBE023
:100D70000125A5402A40AA4276D1DFF880C14E68FD
:100D8000A6EB0C0866452BD00DDC032E34D005DC19
:100D900036B3012E19D0022E2FD11BE0112E16D002
:100DA000122E2AD119E0B8F5881F19D006DCB8F543
:100DB000803F15D0B8F5801F1FD111E0B8F5001F96
:100DC0000ED0B8F5041F18D10AE0CB6815E0CB6847
:100DD0001B1D12E0CB6808330FE0CB680C330CE02E
:100DE0008B682BB1012B4FF0080303D0456104E061
:100DF000042302E0056100E00023FF2A01D8064633
:100E000001E000F104064FEA840501D9A5F12005AF
:100E1000D6F8008007FA05FC28EA0C0803FA05F565
:100E200048EA0508C6F800804D68ED005BD5344DF2
:100E3000AE6946F00106AE61AD6924F0030605F027
:100E4000010500952F4D06EB050CDCF80850A607B0
:100E5000360F07FA06F825EA0805DFF8AC804045AA
:100E600003D14FF0000810E03DE0DFF8A0804045DE
:100E700002D14FF0010808E0DFF89480404502D12C
:100E80004FF0020801E04FF0030808FA06F848EABC
:100E90000508CCF808804D68D9F80060ED034D4690
:100EA00001D5164300E096432E604D68DAF80060E5
:100EB000AD03554601D5164300E096432E604D68BC
:100EC000DBF80060ED025D4601D5164300E0964375
:100ED0002E604D68DEF80060AD02754601D5164300
:100EE00000E096432E60641C0A6832FA04F57FF431
:100EF0003FAFBDE8F88F0000000401400000111072
:100F0000001002400000014000080140000C0140B8
:100F1000001001400AB1016170470904FBE70000BD
:100F2000014880687047000008000020024881687E
:100F3000027811448160704708000020074810B50E
:100F4000016841F010010160032000F075F80F20E6
:100F500000F006F800F024F8002010BD0020024048
:100F600070B50D4D04464FF47A712878B1FBF0F05E
:100F70000A490968B1FBF0F000F042FB48B9102CB7
:100F800007D200222146501E00F036F800206C6087
:100F900070BD012070BD000008000020140000207A
:100FA0000C4808B5816941F001018161816901F056
:100FB00001010091C16941F08051C161C06900F037
:100FC000805000900448416821F0E06141F0806168
:100FD000416008BD0010024000000140002809DB0C
:100FE00000F01F02012191404009800000F1E02043
:100FF000C0F8001170470000F0B40E4B1B680C469F
:10100000C3F30223C3F10705042D00D90425191DDC
:10101000072901D2002300E0DB1E012606FA05F1B4
:10102000491E214099409E40761E16403143F0BC37
:1010300000F037BB0CED00E0064900F0070208683D
:101040004FF6FF03184040EA0220034A10430860AD
:10105000704700000CED00E00000FA052DE9F843B0
:1010600005460078354CC00754D0E0690026C00022
:1010700008D4E06940F08050E061E069012600F0AA
:10108000805000902E480168C90512D4016880463E
:1010900041F480710160FFF743FF074605E000BFA0
:1010A000FFF73EFFC01B642823D8D8F80000C00516
:1010B000F6D5206A10F4407021D0A98801F440715F
:1010C00081421CD0206A1F49012220F440700A602E
:1010D00000220A602062C00711D0FFF721FF0746F7
:1010E00041F2883808E000BFFFF71AFFC11B4145F5
:1010F00002D90320BDE8F883206A8007F4D5206A6E
:10110000696820F44070084320621EB1E06920F055
:101110008050E0612878800705D56068A96820F4D0
:101120004040084360602878C00605D56068E968DB
:1011300020F48000084360600020DBE700100240DC
:1011400000700040400442422DE9F0470F46050080
:1011500061D0434E306800F00700B84209D23068D1
:1011600020F0070038433060306800F00700B842D4
:1011700051D128683B4C810712D5400703D56068E0
:1011800040F4E06060602878000703D5606840F4B0
:10119000605060606068A96820F0F00008436060FB
:1011A0002878C00728D06868012810D02168022854
:1011B00010D0890700292EDA616821F0030101436C
:1011C0006160FFF7ADFE804641F288390DE021688D
:1011D0008903EFE78901EDE7FFF7A2FEA0EB080125
:1011E000494502D90320BDE8F0876068696800F0CE
:1011F0000C00B0EB810FEFD1306800F00700B8426F
:101200000BD9306820F0070038433060306800F0B8
:101210000700B84201D00120E5E72878400705D54E
:101220006068E96820F4E06008436060287800079F
:1012300006D56068296920F4605040EAC10060600A
:1012400000F018F86168084AC1F30311515CC84006
:101250000649086006480068FFF782FE0020C2E7E2
:1012600000200240001002402C180008140000204A
:101270000C00002012A185B00FC98DE80F0014A04A
:10128000144A006804905168134801F00C03042BC1
:1012900010D0082B0ED1C1F38343C9031DF80300FE
:1012A0000AD5516804AAC1F34041515C0A4A50432F
:1012B000B0FBF1F005B0704708494843FAE7000079
:1012C00002030405060708090A0B0C0D0E0F101087
:1012D000010200000010024000127A0000093D00E7
:1012E0002DE9F84F040070D02078C04DC00749D0D8
:1012F0006868C0F38100012807D06868C0F38100E6
:10130000022809D16868C00306D52868800339D54A
:1013100060680028E7D035E06068B0F5803F0BD00A
:1013200010B1B0F5A02F11D0286820F480302860CB
:10133000286820F4802002E0286840F4803028608B
:10134000606890B1FFF7ECFD06460AE0286840F4BB
:1013500080202860F0E700BFFFF7E2FD801B6428D3
:1013600073D828688003F7D50CE0FFF7D9FD06464F
:1013700005E000BFFFF7D4FD801B6428F0D8286883
:101380008003F7D420789A4E80074FF001094FF080
:10139000000839D5686810F00C0F07D06868C0F3F2
:1013A0008100022809D16868C00306D42868800734
:1013B00014D52069012808D110E02069B0B1C6F821
:1013C0000090FFF7ADFD074605E00AE1FFF7A8FD35
:1013D000C01B0228C4D828688007F7D5286861692F
:1013E00020F0F80040EAC10028600DE0C6F8008057
:1013F000FFF796FD074604E0FFF792FDC01B0228A9
:1014000023D828688007F7D4207800072CD579489E
:10141000A169D9B1C0F80090FFF782FD074604E04A
:10142000FFF77EFDC01B02280FD8686A8007F7D53A
:1014300071484FF4FA510068B0FBF1F0009000BF22
:101440000098411E0091FAD20EE080E0C0F80080C2
:10145000FFF766FD074604E0FFF762FDC01B0228A8
:1014600075D8686A8007F7D42078400760D5E869A6
:101470000027C00008D4E86940F08050E861E869BE
:10148000012700F0805000905C480168C90513D422
:101490000168834641F480710160FFF741FD824697
:1014A00006E000BFFFF73CFDA0EB0A0064284ED821
:1014B000DBF80000C005F5D5E06801280AD008B1C6
:1014C000052813D0286A20F001002862286A20F03D
:1014D000040002E0286A40F001002862E06841F25E
:1014E000883B98B1FFF71CFD82460BE0286A40F06C
:1014F00004002862EEE700BFFFF712FDA0EB0A012F
:1015000059455AD8286A8007F6D50CE0FFF708FD40
:10151000824605E0FFF704FDA0EB0A0159454CD8CF
:10152000286A8007F6D41FB1E86920F08050E8618E
:10153000E06988B36968C1F38101022944D00228B7
:10154000C6F8608004D0FFF7EBFC044638E034E0D6
:10155000FFF7E6FC074604E0FFF7E2FCC01B0228A9
:101560002BD828688001F7D4206AB0F5803F05D1D8
:101570006868A16820F4003008436860D4E9080175
:101580000843696821F4741108436860C6F86090E4
:10159000FFF7C6FC044606E025E000BFFFF7C0FCED
:1015A000001B022809D828688001F7D51BE000BF7E
:1015B000FFF7B6FC001B022802D90320BDE8F88F14
:1015C00028688001F4D40EE00128F7D06868226A08
:1015D00000F48031914204D1616A00F470108842B5
:1015E00001D00120EAE70020E8E7000000100240F7
:1015F000000042428004424214000020007000407B
:1016000010B5401EB0F1807F01D3012010BD4FF016
:10161000E02460610F21601700F043F80020A06112
:1016200007202061002010BDFEE7FEE7FEE77047BF
:101630007047FFF77BBC30B593B028216846FEF7B2
:101640004BFE14210AA8FEF747FE002401200F9448
:101650000225049000951020119405901094129486
:1016600007946846FFF73CFE08B172B6FEE70F200C
:10167000CDE90A040C940D9400210AA80E94FFF7FA
:1016800063FD08B172B6FEE70FA80F951194FFF73E
:10169000E5FC002801D072B6FEE713B030BD7047FC
:1016A000FEE70907090E002804DB00F1E02080F8BE
:1016B0000014704700F00F0000F1E02080F8141DC6
:1016C000704700008CB0FFF739FCFFF7B4FF00262D
:1016D0004C480096019602960396816941F00401F8
:1016E00081618069484C00F004004FF47C750490DF
:1016F000324629462046FFF70DFC0220CDE9026064
:1017000000950125694601952046FFF723FB3F49D7
:101710003F488F15876001600573067546604FF47A
:1017200060210561C161FFF7D9F908B172B6FEE722
:101730004021CDE907418020CDE909401021CDE9C4
:1017400003412020CDE9054000010097CDE901408B
:101750002F48234602223030FEF72FFF2D4C4FF446
:101760007A78A71CFEF704FF26702948FFF77AFA5B
:101770000A20FFF7DDFAFEF70DFF25702448FFF77A
:1017800071FA0A20FFF7D4FA2148002211463030BE
:10179000FEF786FF1E4820A13030FFF781F81C4875
:1017A000002207213030FEF77BFF19481CA13030A2
:1017B000FFF776F81648012200213030FEF770FF5F
:1017C00013483A8818A18830FEF702FD1049883185
:1017D000A1F15800FFF764F80D48012207213030CD
:1017E000FEF75EFF0A487A880FA18830FEF7F0FC0A
:1017F00007498831A1F15800FFF752F84046FFF73A
:1018000097FAAFE7001002400008014000240140B1
:101810001800002000000020414443313A2000001D
:10182000414443323A2000002564000000000000DB
:101830000000000001020304060708095C18000804
:10184000000000201800000028010008741800089B
:1018500018000020F8060000440100080000000005
:101860000000000001000000100000000000000067
:041870000024F4005C
:04000005080000ED02
:00000001FF
