:020000040800F2
:100000002838002045020008B73100087D3000087C
:10001000B531000825170008F53800080000000079
:10002000000000000000000000000000AD0100081A
:100030005519000800000000F101000815350008FE
:100040005F0200085F0200085F0200085F0200080C
:100050005F0200085F0200085F0200085F020008FC
:100060005F0200085F0200085F0200085F020008EC
:100070005F0200085F0200085F0200085F020008DC
:100080005F0200085F020008451600085F020008D2
:100090005F0200085F0200085F0200085F020008BC
:1000A0005F020008BD3500085F0200085F0200081B
:1000B0005F0200085F0200085F0200085F0200089C
:1000C0005F0200085F0200085F0200085F0200088C
:1000D0005F020008E93800085F0200085F020008BC
:1000E0005F0200085F0200085F02000800F002F8EB
:1000F00000F04DF80AA090E8000C82448344AAF175
:100100000107DA4501D100F042F8AFF2090EBAE872
:100110000F0013F0010F18BFFB1A43F0010318473B
:10012000D0770000F0770000103A24BF78C878C17B
:10013000FAD8520724BF30C830C144BF04680C60ED
:10014000704700000023002400250026103A28BF35
:1001500078C1FBD8520728BF30C148BF0B60704739
:10016000662907F03E82642900F0E880732900F0D8
:10017000D684002070471FB500F00AFD040000205F
:10018000002106F0B1F9E0601FBD10B510BD00F010
:100190001BFE1146FFF7EFFF03F020FD00F039FED4
:1001A00003B4FFF7F2FF03BC00F07CFE224B19689A
:1001B0000868B0E8F00F80F30988BFF36F8F4FF045
:1001C000000080F311884EF00D0E70470000000013
:1001D00006480068006880F3088862B661B6BFF31D
:1001E0004F8FBFF36F8F00DF00BF00BF08ED00E04F
:1001F000EFF30980BFF36F8F0F4B1A6820E9F00F00
:10020000106008B54FF0500080F31188BFF34F8F96
:10021000BFF36F8F05F07CFA4FF0000080F3118878
:10022000BDE8084019680868B0E8F00F80F3098855
:10023000BFF36F8F704700BF38000020EFF30580D9
:10024000704700000948804709480047FEE7FEE77D
:10025000FEE7FEE7FEE7FEE7FEE7FEE7FEE7FEE776
:1002600004480549054A064B70470000B9350008A7
:10027000ED00000828320020283800202834002013
:10028000283400200FB4044910B503AA029800F0E6
:100290004BFC10BC5DF814FB2400002070B5044634
:1002A00085690068C10601D5302600E02026C00718
:1002B00007D070BDD4E9012130469047206A401C28
:1002C00020626D1EF6D570BD70B504468569007854
:1002D000C00707D170BDD4E9012120209047206AD2
:1002E000401C20626D1EF6D570BD70B50C460546EB
:1002F000012A05D02878800600D5EA69002302E0AB
:10030000012305E05B1C934202D2E05C0028F9D196
:10031000A869E618C01AA861286A18442862284605
:10032000FFF7BCFF04E0D5E9012114F8010B904769
:10033000B442F8D32846FFF7C7FF70BD2DE9F0415E
:100340000646002410687529314616A510D0AFF373
:100350000080002802DA404213A507E031688A07CE
:1003600001D512A502E0490704D511A5012401E039
:10037000AFF3008000210A2206F1240709E0B0FB58
:10038000F2FCB0FBF2F302FB1C003030785418464C
:10039000491C0028F3D123462A463046BDE8F041E7
:1003A00000F043B9000000002D0000002B00000009
:1003B000200000002DE9F0474FF0000A894604466E
:1003C000C0F820A02046E1688847002876D025287C
:1003D00006D0D4E901219047206A401C2062F1E751
:1003E000E168204600258847C4F81CA0064600277F
:1003F000C4F818A02A2E09D0304603F015FB38B3F4
:1004000004EB8708303EC8F8186019E059F8041B5F
:10041000204604EB87029161E1688847012F064678
:1004200018D1E069002820DA25F020051DE0D8F871
:10043000180000EB800006EB40003038C8F81800C8
:100440002046E1688847064603F0EEFA0028EED120
:10045000012F0AD02E2E08D12046E16888477F1C44
:100460000646022F45F02005C4DBA069002803DA08
:10047000404245F00105A061E80701D025F01005D4
:10048000B6B1A6F14100192802D8203645F400651E
:100490004A463146204625604D46FFF761FE58B179
:1004A000012806D0ED1D25F0070000F1080989E7B5
:1004B00004E005F1040985E730468AE7206ABDE8D3
:1004C000F087032A40F2308010F0030C00F0158012
:1004D00011F8013BBCF1020F624498BF11F801CB47
:1004E00000F8013B38BF11F8013BA2F1040298BFAC
:1004F00000F801CB38BF00F8013B11F0030300F016
:100500002580083AC0F0088051F8043B083A51F8B9
:1005100004CBA0E80810F5E7121D5CBF51F8043BBE
:1005200040F8043BAFF30080D20724BF11F8013B31
:1005300011F801CB48BF11F8012B24BF00F8013B93
:1005400000F801CB48BF00F8012B704710B5203AE6
:10055000C0F00B80B1E81850203AA0E81850B1E87C
:100560001850A0E81850BFF4F5AF5FEA027C24BF32
:10057000B1E81850A0E8185044BF18C918C0BDE829
:1005800010405FEA827C24BF51F8043B40F8043BF2
:1005900008BF7047D20728BF31F8023B48BF11F8A7
:1005A000012B28BF20F8023B48BF00F8012B704701
:1005B00002F0FF0343EA032242EA024200F0C8BA13
:1005C0004FF0000200B5134694469646203922BFEC
:1005D000A0E80C50A0E80C50B1F12001BFF4F7AF37
:1005E000090728BFA0E80C5048BF0CC05DF804EB19
:1005F000890028BF40F8042B08BF704748BF20F887
:10060000022B11F0804F18BF00F8012B7047704784
:100610007047704710B500F0BFFA006810BD10B504
:10062000044600F0B9FA046010BD2DE9F0470D460C
:1006300099469246044600F124080168880604D5CC
:10064000E06921F01001216000E00120A84201DDF5
:10065000471B00E00027A1697A1902EB0900081A7C
:10066000A0612078C00602D42046FFF717FE0026BE
:1006700008E0D4E901211AF806009047206A401CDE
:10068000761C20624E45F4DB2078C0060AD5204651
:10069000FFF704FE06E0D4E9012130209047206AEC
:1006A000401C2062381EA7F10107F4DC07E0D4E902
:1006B000012118F805009047206A401C2062281E7E
:1006C000A5F10105F3DC2046FFF7FEFD20780006CA
:1006D00002D50220BDE8F0870120FBE770472DE935
:1006E000FF4F0C461E464FF0FF378BB0D2E900019A
:1006F000DDF860800A908A46C1F30A5505B93D4687
:10070000002108464FF00000BAF1000F00F440004D
:1007100005DA00EB80004FF4400101EA50004FEA97
:100720009059B9F1010F00DDB9460A9850EA4A0024
:100730000ED044F61050A5F2FF3545432F14B8F102
:10074000000F1ED07542291E1EDDC9F100021CE0FB
:10075000B8F1010F4FF0000001D0302103E0F24367
:1007600005E02154401CB042FBDB30460022002152
:1007700021540B99C1F80880C1E900200FB0BDE8F1
:10078000F08FBD1B6D1CDEE74A4600DA694206A801
:1007900000F0A4FA06AB93E8070003AB83E8070078
:1007A00050460A9900F085FB8DE80700A0F500503F
:1007B0001F3800900398002D0ADD42F21F014A46BF
:1007C0000844002303A90390684600F0EEFD09E009
:1007D000A0F500504A461F38002303A9039068463D
:1007E00000F0F8FD8DE807000004000C03D04FF086
:1007F000FF30410800E01046B8F1000F03D000229E
:10080000009215461EE0751E05D400F0C9F930327D
:1008100062556D1EF9D5B3460122084302D000226D
:100820007F1C04E02078302801D100227F1E002A9E
:10083000099784D01DE0112D07DA00F0B1F93032AC
:1008400062556D1C50EA0102F5D1084302D00098B0
:10085000C8B10EE00021681E05E0235C625C6354B1
:100860002254401E491C8142F7DBAB46A81B401EA8
:100870000990002004F80B000B98099AC0F8088032
:10088000C0E9002B7AE711264FF0000857E72DE961
:10089000F04F88460446D21D22F0070191B0D1E9FD
:1008A0000001CDE90A0103F026F802460B98C00FBB
:1008B00001D02D2007E02068810701D52B2002E020
:1008C000202101EAC000032A099001D0072A05DB94
:1008D00003464146204600F0C1F90BE1207880062E
:1008E00001D5E06900E00620B8F1650F814606D029
:1008F000B8F1660F18D0B8F1670F70D131E0002061
:10090000B9F1110F009001DB112301E009F101039E
:100910000AAA01A90CA8FFF7E2FEDDE90C70002687
:1009200009F10105834647E001204B4600904FF056
:1009300000470AAA01A90CA8FFF7D1FEDDE90DB016
:100940000C995D46002610B909F101000D18B9EBAC
:10095000050003D4C0F1FF3609F10105A5EB09003C
:100960002BE0B9F1010F01DA4FF001090020B9F1D4
:10097000110F0090484601DD112300E003460AAA4A
:1009800001A90CA8FFF7ABFEDDE90C704D4600266F
:100990008346207800070AD4AB4500DA5D4601A8FB
:1009A000012D04DD411911F8011C302907D04F45F4
:1009B00002DA17F1040F04DA012082460FE06D1EFF
:1009C000EEE7002F02DCED1B3E4403E0781CA8425A
:1009D00000DD7D1CB81B00F1010A4FF000472078B4
:1009E000000703D4AA4501DB4FF0FF3A0021B7F11D
:1009F000004F0DF143088DF8431024D002202B2323
:100A0000002F01DA7F422D230A21021EA0F10100EE
:100A100000DC5FB197FBF1FC97FBF1F201FB1C7C62
:100A200017460CF1300C08F801CDEEE7A8F10100F3
:100A300003702188090501D5452100E06521A0F159
:100A4000010800F8011C09980FA9A1EB0807FF1D78
:100A500000B10120411901EBEA70A1693844081A7C
:100A6000401EA0612078C00602D42046FFF716FC85
:100A7000099828B1D4E901219047206A401C2062DE
:100A80002078C00622D52046FFF708FC1EE0002E85
:100A900004DBB34502DD01A8805D00E03020D4E92D
:100AA00001219047206A401C2062761CAAF10100B7
:100AB0005FEA000A0AD100F06BF8C0680168405C88
:100AC000D4E901219047206A401C2062281EA5F12C
:100AD0000105DCDC07E0D4E9012118F8010B90479F
:100AE000206A401C2062381EA7F10107F3DC204673
:100AF000FFF7EAFB032011B041E610B5436913B1DB
:100B0000AFF3008001E0FFF7F0FB012010BD127889
:100B100000F124010A7000224A700122EDE71168F9
:100B20004FF0FF32E9E70000074B70B50D467B44FC
:100B300000F081F80446284602F0FEFF10B14FF0A5
:100B4000FF3070BD204670BD0B3000004FF000023A
:100B50000429C0F0128010F0030C3FF433ADCCF147
:100B6000040CBCF1020F18BF00F8012BA8BF20F83D
:100B7000022BA1EB0C01FFF725BD5FEAC17C24BF6E
:100B800000F8012B00F8012B48BF00F8012B70473B
:100B900000487047E431002000487047C43100200D
:100BA00030B5B0F10A024FEA900E71F100034EEA3F
:100BB000817EB0EB0E0061EB91014FEA101E4EEA10
:100BC000017E10EB0E0041EB11114FEA102E4EEAA0
:100BD000016E10EB0E0041EB11214FEA104E4EEA70
:100BE000014E10EB0E0041EB1141401841F10001A4
:100BF0004FEAD00040EA41704FEAD10110EB800586
:100C00004FEA810444EA907444EB01046D1944EB0B
:100C10000404521BA3414FF0000348BF0A3200D521
:100C200030BD401C41F1000130BD000001694A1C8B
:100C300002610878704700B58FB0CDE9013100211D
:100C4000059105497944CDE9031011466846FFF73F
:100C5000B1FB0FB000BD0000E5FFFFFF2DE9F04143
:100C60001F46044603260168072A01F4006004DBDE
:100C700008B116A505E016A503E008B115A500E02A
:100C800015A521F010002060A069C01EA0610FB161
:100C9000401EA0612046FFF701FB4FB1D4E90121BE
:100CA00038469047206A401C2062C01C206206E043
:100CB000206AFAE7D4E9012115F8010B9047761E66
:100CC000F8D22046FFF700FBBDE8F0814E414E0010
:100CD0006E616E00494E4600696E66002DE9F04770
:100CE000814616468AB0354878440DC88DE80D0017
:100CF00032487844801C03AC0DC884E80D0041F6EE
:100D00009B300844372190FBF1F290FBF1F5A5F1FF
:100D1000800501FB12041B3C02D56442012000E067
:100D20000020DFF898A080460027FA44AAF1BE0A06
:100D30000EE0E0070AD03246684607EB4701012380
:100D40000AEB810100F046FB8DE8070064107F1C70
:100D5000002CEED1194F7F44AE3F19E0E80715D0C3
:100D600007EB04100DF1180A90E80E008AE80E0057
:100D7000C068F04201D1981908903246012306A9B3
:100D800003A800F027FB03AB83E807006D10641C89
:100D9000002DE3D14FF0010332466946B8F1000F50
:100DA00003A802D000F001FB01E000F013FBC9E949
:100DB0000001C9F808200AB0BDE8F087B06B000058
:100DC00000487047C43100207546FFF7F9FFAE4672
:100DD00005006946534620F00700854618B020B547
:100DE000FFF73EFABDE820404FF000064FF0000745
:100DF0004FF000084FF0000B21F00701AC46ACE8C3
:100E0000C009ACE8C009ACE8C009ACE8C0098D462F
:100E1000704710B50446AFF300802046BDE810408F
:100E2000FFF7BEB94FF0013C50F8042B51F8043BDA
:100E30009A4221D1A2EB0C03934313EACC1317D1AE
:100E400050F8042B51F8043B9A4215D1A2EB0C0345
:100E5000934313EACC130BD150F8042B51F8043B05
:100E60009A4209D1A2EB0C03934313EACC13DBD0D3
:100E70004FF00000704700BFD01A01BAB1FA81F1FB
:100E800001F0180122FA01F0CB40C1F12001DBB2E0
:100E9000C0B2C01A2CFA01F3D11A914311EAC3115E
:100EA000E6D1704701491820ABBEFEE726000200DC
:100EB00070475FEA400C08BF91F0000F4FEA8C23A7
:100EC0004FEAC12243EA51514FEA1C5018BF00F5C6
:100ED000F0404FEA300018BF41F000415FEA6C5C1F
:100EE00000F02980BCF1FF3F08BF40F08040704710
:100EF000130C06BF12044FF0100C4FF0000C130E31
:100F000004BF12020CF1080C130F04BF12010CF104
:100F1000040C930F04BF92000CF1020CD30F04BF1A
:100F200052000CF1010C11464FF00002A0F11F001D
:100F3000A0EB0C00704711F0004F08BF704731F074
:100F400000413FF4D5AF0B0C06BF09044FF0100C65
:100F50004FF0000C0B0E04BF09020CF1080C0B0F34
:100F600004BF09010CF1040C8B0F04BF89000CF1C4
:100F7000020CCB0F04BF49000CF1010CCCF1200393
:100F8000A0EB0C0022FA03F302FA0CF241EA03018F
:100F900000F10100704720F07F4C80EA030023F04D
:100FA0007F47ACEB070303F57C5300F0004003F1EF
:100FB000FF032DE980494FEA154B09B44FEA14436A
:100FC00025EA0B4E24EA03480FF2042606EB13270A
:100FD00049083E785FEA320203FB0667C7F500075F
:100FE00007FB06F64FEA54374FEAD64606F10206EB
:100FF00007FB066CCCF1005C4FEA1C472CEA074C5F
:1010000007FB06F40CFB06F504EB15464FEA9616B3
:1010100034BF00204FF000404FEAD13706FB07FCF9
:101020004FEA1C4C0CFB0BF7D21B03FB0CF761EBDC
:1010300007010CFB0EF7B0EB074072EB17420CFBFD
:1010400008F734BFA2EB0742B2EB074261EB17414E
:101050004FEA0C444FEA910706FB07FC4FEA1C4C91
:101060000CFB0BF7B0EBC74072EB573203FB0CF7EE
:1010700034BFA2EBC742B2EBC74261EB57310CFB66
:101080000EF7B0EBC70072EB57720CFB08F734BFDA
:10109000A2EBC702B2EBC70261EB5771039F4FEAA5
:1010A000816141EA921104EBCC044FEAD1374FEA57
:1010B000826206FB07FC42EA90124FEA80604FEA28
:1010C0001C4C0CFB0BF7D21B03FB0CF761EB07016D
:1010D0000CFB0EF7B0EB074072EB17420CFB08F766
:1010E00034BFA2EB0742B2EB074261EB17414FEA74
:1010F0008C554FEA910704EB9C2406FB07FC4FEA52
:101100001C4C0CFB0BF7B0EBC74072EB573203FBE8
:101110000CF734BFA2EBC742B2EBC74261EB5731C9
:101120000CFB0EF7B0EBC70072EB57720CFB08F725
:1011300034BFA2EBC702B2EBC70261EB577115EBEC
:101140004C254FEA816141EA92114FEA82624FEAEF
:10115000D13742EA901206FB07FC44F100044FEA43
:1011600080604FEA1C4C0CFB0BF7D21B03FB0CF707
:1011700061EB07010CFB0EF7B0EB074072EB174277
:101180000CFB08F734BFA2EB0742B2EB074261EB5E
:10119000174115EB1C154FEA813141EA92414FEAA4
:1011A000823242EA90424FEA80304FEA0C7644F1B4
:1011B000000448EA03434EEA0B484FF0000EB2EB3E
:1011C000080C71EB030724BF624639464EEB0E0E46
:1011D0004FF0000B0018524149414BEB0B0BB2EBA7
:1011E000080C71EB03077BF1000B24BF6246394604
:1011F0004EEB0E0E4FF0000B0018524149414BEBE5
:101200000B0BB2EB080C71EB03077BF1000B24BF57
:10121000624639464EEB0E0E51EA020718BF46F001
:10122000010616EB0E7655F1000254F1000103D5CC
:10123000BDE88901BDE80088BDE88901BDE8004836
:10124000B619524141EB0101A3F1010370478080BF
:101250007F7E7D7C7B7A7978777676757473727110
:1012600071706F6E6E6D6C6C6B6A6A6968686766C8
:1012700066656464636362616160605F5F5E5E5D5A
:101280005D5C5C5B5B5A5A595958585757565655CE
:1012900055555454535352525251515050504F4F30
:1012A0004F4E4E4D4D4D4C4C4C4B4B4B4A4A4A4980
:1012B00049494848484747474746464645454544C3
:1012C0004444444343434342424242414141002B50
:1012D0009C4630D477002BD01CB54FEA370703B4B7
:1012E0004FF010004FF01001BAF1000F06D0BCF122
:1012F000000FDCBF40F0080040F008014FF0000094
:101300000FBCBDE810400BF1010BBBF1010F08BF92
:101310005FEA170722BF12F1010211F101014FF03C
:10132000004143F1000300F0004043EA0000704731
:10133000F9D35708D0E746EA064613F1400F4FEAC3
:1013400016461FDD13F1200FDFBF16430A460021AA
:1013500020335B42BED0C3F1200746EA064602FABC
:1013600007F74FEA164646EA0706C3F1200722FAB6
:1013700003F201FA07F721FA03F14FF0000342EA02
:101380000702A7E746EA020646EA06464FEA16467D
:1013900046EA0106BCBF46EA0646360C4FF000039B
:1013A0004FF000024FF0000194E72DE9804C9A467F
:1013B000934670B491E8380007C831EA400C48BF42
:1013C00034EA430C03D5FFF7E6FDFFF780FFF0BCDE
:1013D000BDE8008C2DE9804C9A46934670B491E8A4
:1013E000380007C810F0804F08BF13F0804F03D1BA
:1013F00000F005F8FFF76BFFF0BCBDE8008C20F0B3
:101400007F4780EA030023F07F4C07EB0C03A3F532
:101410007C5300F00040A3F1FE0392F0000F00F0B7
:10142000B38095F0000F00F077802DE901494FEA75
:1014300011404FEA144621EA004800FB06FC24EA6A
:10144000064708FB06F607FB08F800FB07F718EB52
:1014500006484CEB164C4FEA124B18EB07484FEA84
:1014600015464CEB174022EA0B4E0BFB06FC25EA17
:1014700006470EFB06F607FB0EFE0BFB07F71EEBFF
:10148000064E4CEB164C4FF000061EEB074E4CEB95
:10149000174B18EB0B0840F1000018EB0E0B58EB44
:1014A000000840F100008F1A4FF000013CBFC94313
:1014B000661B14BFB5EB040C00213CBFC943F61BEF
:1014C0004FEA17444EEA8E0E27EA04454FEA1C47BE
:1014D00004FB07622CEA074C05FB07F70CFB05F63B
:1014E00004FB0CFC16EB074642EB174216EB0C46CE
:1014F00042EB1C421BEB060658EB0202414146EA56
:101500009E0601D5BDE80189B619524141EB0101A2
:10151000A3F10103BDE801894FEA14454FEA1147E1
:1015200024EA054621EA074C05FB07F406FB07F70A
:101530000CFB06F105FB0CFC11EB074144EB1744D7
:101540004FEA124711EB0C4144EB1C4422EA074CD2
:1015500005FB07F206FB07F70CFB06F605FB0CFC88
:1015600016EB074642EB174216EB0C4642EB1C45C6
:101570006A1854F1000148BF7047B619524141EB57
:101580000101A3F10103704795F0000F37D04FEA36
:1015900011424FEA144721EA024624EA074C02FBB3
:1015A00007F106FB07F70CFB06F402FB0CFC14EB3F
:1015B000074441EB17414FEA154714EB0C4441EB4C
:1015C0001C4125EA074C02FB07F506FB07F70CFB5D
:1015D00006F602FB0CFC16EB074645EB174516EB2F
:1015E0000C4645EB1C42121951F1000148BF7047EF
:1015F000B619524141EB0101A3F1010370474FEAD3
:1016000014454FEA114724EA054621EA074C05FB39
:1016100007F106FB07F70CFB06F24FF0000605FB8F
:101620000CFC12EB074241EB174112EB0C4251EB61
:101630001C4148BF7047921841EB0101A3F101031F
:1016400070470000014800F02CBA0000C4000020E0
:1016500070B5044600688168C943C90717D181681D
:1016600021F00101816000F035FD05460AE000BF70
:1016700000F030FD401B022804D920688068C04378
:10168000C00706D020688068C043C007F0D00020A3
:1016900070BDA06A40F01000A062E06A40F0010056
:1016A000E062012070BD0000F8B5002604460096F7
:1016B00000688168C943C9072DD0816841F00101E4
:1016C0008160164816490068B0FBF1F000E0401E4A
:1016D00000900028FBD100F0FDFC054616E000BF9D
:1016E00000F0F8FC401B022810D920688068C04335
:1016F000C0070BD0A06A40F01000A062E06A40F082
:101700000100E06284F824600120F8BD2068806850
:10171000C043C007E4D10020F8BD00003400002021
:1017200040420F00FEE7000010B50022114608A459
:10173000435C645C491C1B1B1A44D2B20729F6DBCC
:10174000054812B10021417010BD0121FBE70000E6
:1017500053657454696D65000000002001F002B902
:1017600010B5036800225A624FF47A7303E00268EE
:10177000546A9C42FCD3491E89B2F8D210BD03685A
:1017800000225A620068426A8A42FCD370470068AD
:10179000FFF7E6BF0068FFF7F2BF30B482608380D6
:1017A000016030BC0846FFF7D9BF2DE9F04107467C
:1017B000002500F057F800240126384600F061F8B3
:1017C0000021384600F0C0F801213846FFF7E2FF5B
:1017D000384600F047F8384600F00FF818B106FA1E
:1017E00004F02843C5B232213846FFF7D3FF641C0A
:1017F000082CE2DB2846BDE8F0818188806800F093
:101800005FBC70B5044600F04DF801212046FFF79B
:10181000BEFFCC21204600F066F84421204600F0AF
:1018200062F8C8212046FFF7B2FF204600F03AF8E0
:1018300001212046FFF7ABFFCC21204600F053F8F2
:10184000BE21204600F04FF82046FFF7AEFF0546C8
:101850002046FFF7AAFF45EA0020000905F062FDD7
:10186000E06070BD1FB500210091019102910391CC
:1018700081880091012102918068694600F030FB67
:101880001FBD1FB500210091019102910391818834
:10189000009101210191022103918068694600F0C5
:1018A0001FFB1FBD70B505460024FFF7EAFF0021AE
:1018B000284600F049F84FF4F0712846FFF76AFF18
:1018C0002846FFF7CFFF50212846FFF763FF284641
:1018D000FFF793FF00B901244FF4C8712846FFF7C2
:1018E00059FF204670BD2DE9F0410E460746FFF72F
:1018F000C8FF0024012505FA04F03042384611D013
:10190000FFF7BFFF0021384600F01EF801213846DE
:10191000FFF740FF3846FFF7A5FF32213846FFF7B3
:1019200039FF0CE0FFF7ADFF0021384600F00CF85E
:1019300032213846FFF72EFF3846FFF793FF641C2D
:10194000082CD8DBBDE8F08183880A4680681946F8
:1019500000F0BBBB70477047F8B50024009490F8C6
:1019600024202546012A12D0012280F824204A682A
:101970001F23072A0DD20668776B521E02EB8202E4
:1019800093409F430B6893401F43776319E0022005
:10199000F8BD06680D2A0AD2376BD21F02EB82020D
:1019A00093409F430B6893401F43376309E0F76AF6
:1019B0000D3A02EB820293409F430B6893401F4312
:1019C000F7620A68072306680A2A0AD3F7680A3A00
:1019D00002EB420293409F438B6893401F43F760A2
:1019E00008E0376902EB420293409F438B689340C3
:1019F0001F4337610A68102A01D0112A20D1124BE7
:101A000002689A4217D193681B0219D4936843F471
:101A1000000393600968102912D10C490C4A096827
:101A2000B1FBF2F101EB8101490000E0491E009198
:101A30000029FBD104E0816A41F020018162012488
:101A400080F824502046F8BD0024014034000020D6
:101A500040420F0070B500680B49884212D10B4814
:101A600000F01CF80A4C80B2A08005F05BFC09492C
:101A700005F096FB084D294605F068FC294605F05F
:101A800031FDE06070BD000000240140C400002072
:101A90000000002000F07F450000C8420068C06CD4
:101AA000704710B5044600684168890626D501686C
:101AB000890723D5A16AC90603D4A16A41F400713C
:101AC000A1628168C1F34241072910D1217B71B91C
:101AD000416821F020014160A06A20F48070A0627A
:101AE000A06AC00403D4A06A40F00100A0622046AE
:101AF000FFF7B0FF21686FF01200086020684168AE
:101B000009062ED5016849072BD5A16AC90603D459
:101B1000A16A41F40051A1628168C1F30231072931
:101B200009D04168490515D48168C1F342410729AC
:101B300010D1217B71B9416821F080014160A06A18
:101B400020F48050A062A06AC00503D4A06A40F0CF
:101B50000100A0622046FFF7FEFE21686FF00C0036
:101B600008602068416849060DD50068C0070AD0A2
:101B7000A06A40F48030A062204600F093F821680B
:101B80006FF00100086010BD2DE9F0414FF0000733
:101B900004003D467ED0A06A002628B9E66284F89B
:101BA0002460204600F080F82046FFF751FDA16A2E
:101BB000C90600D420B1A06A40F01000A06269E01C
:101BC000A16A21F4885141F00201A1626268E169D1
:101BD000237B0A4347EA43010A43A1684FF4807715
:101BE000B94209D0012907D05FF0000194F814C070
:101BF000BCF1010F02D00AE03946F7E7F3B1A36A5E
:101C000043F02003A362E36A43F00103E362236825
:101C1000D3F804C02CF4694C4CEA010CC3F804C09E
:101C200021688B68DFF870C003EA0C0313438B60F4
:101C3000A168B9420BD0012909D00CE0DFF85CC0E3
:101C4000A3690CEB43330B4343F40061DFE7218AC4
:101C50000D05A5F580152168CB6A23F470032B438D
:101C6000CB62216889680E4B1940914208D1E66227
:101C7000A16A21F0020141F00101A162BDE8F081F9
:101C8000A06A20F0020040F01000A062E06A40F07C
:101C90000100E0620120F1E7FDF7E1FF00E0FFFF56
:101CA000FE0E1FFF7047000000B585B000210091B7
:101CB00001910291039100681249884220D1124893
:101CC000816941F400718161816901F400710491BD
:101CD000816941F0040181618069694600F0040076
:101CE00004900220009003200190084800F0F8F8CA
:101CF00000220521122000F079FA122000F068FA83
:101D000005B000BD00240140001002400008014061
:101D100070B5044690F8240001280DD0012084F805
:101D200024002046FFF7C0FC02004FF0000005D061
:101D300084F82400104670BD022070BDA16A40F6F0
:101D40000163994341F48071A162224D23682249C5
:101D5000AB4218D10E6816F4702F14D0A66A46F460
:101D60008016A6620E68760505D5A66A26F400568A
:101D700046F48056A662A66AF6040AD5E66A26F0FC
:101D80000606E66206E0A66A26F48016A6625E688B
:101D9000E9E7E06284F824006FF002001860206830
:101DA000436843F02003436020688368C3F34243E1
:101DB000072B05D1A84208D1096811F4702F04D06F
:101DC000816841F480118160B4E7816841F4A00129
:101DD000F9E70000002801400424014010B590F804
:101DE00021100022022905D00421816380F82020DF
:101DF000012010BD01680B6823F00E030B60016821
:101E00000B6823F001030B6090F84030C46B012194
:101E100001FA03F3636080F8211080F82020104657
:101E200010BD000010B590F821100024022903D045
:101E30000421816301243DE001680A6822F00E025A
:101E40000A6001680A6822F001020A601A4A016801
:101E5000914201D1012121E0174A1432914201D16E
:101E600010211BE0144A2832914201D1891515E056
:101E7000114A3C32914201D189140FE00E4A50328E
:101E8000914202D14FF4803108E00B4A6432914212
:101E900002D14FF4801101E04FF08071064A083AF8
:101EA0005160012180F82110002180F82010416B41
:101EB00001B18847204610BD0800024070B50446B5
:101EC00000F008F90546601C02D00448007804447C
:101ED00000F000F9401BA042FAD370BD280000209A
:101EE0002DE9F84FDFF8B891002409F1040A0AF14E
:101EF000040B23460F270BF1040EC9E00125A54072
:101F00002A40AA427DD1674ED1F804C0ACEB060846
:101F1000B44532D014DCBCF1030F3AD009DCBCF17B
:101F2000000F2AD0BCF1010F1CD0BCF1020F31D13F
:101F30001DE0BCF1110F17D0BCF1120F2AD119E02E
:101F4000B8F5881F19D006DCB8F5803F15D0B8F574
:101F5000801F1FD111E0B8F5001F0ED0B8F5041F87
:101F600018D10AE0CB6815E0CB681B1D12E0CB68E6
:101F700008330FE0CB680C330CE08B682BB1012BDE
:101F80004FF0080303D0456104E0042302E005613B
:101F900000E00023FF2A01D8064601E000F1040614
:101FA0004FEA840501D9A5F12005D6F8008007FA8B
:101FB00005FC28EA0C0803FA05F548EA0508C6F806
:101FC00000804D68ED0062D5374DAE6946F00106E0
:101FD000AE61AD6924F0030605F001050095334DAF
:101FE00006EB050CDCF80850A607360F07FA06F8D2
:101FF00025EA0805DFF8B880404503D14FF0000816
:1020000017E044E0DFF8AC80404502D14FF0010812
:102010000FE0DFF8A480404502D14FF0020808E04D
:10202000DFF89880404502D14FF0030801E04FF0FF
:10203000040808FA06F848EA0508CCF808804D6854
:10204000D9F80060ED034D4601D5164300E09643F4
:102050002E604D68DAF80060AD03554601D5164391
:1020600000E096432E604D68DBF80060ED025D46AF
:1020700001D5164300E096432E604D68DEF80060FF
:10208000AD02754601D5164300E096432E60641CF0
:102090000D682A46E5407FF431AFBDE8F88F0000B7
:1020A0000004014000001110001002400000014037
:1020B00000080140000C01400010014000140140E4
:1020C0008068084000D0012070470AB10161704764
:1020D0000904FBE7014880687047000028000020E1
:1020E000024881680278114481607047280000200E
:1020F000074810B5016841F010010160032000F0AD
:1021000095F80F2000F006F800F03EF8002010BD12
:102110000020024000B5014687B00022192000F0DF
:1021200065F8192000F054F81348816941F4006102
:102130008161806905A900F400600690684600F09E
:1021400093F900F0C1F90D490D4AB0FBF1F10D48CA
:10215000491E0260416040F2E7320021C0E90321DC
:10216000816000F0BDFB10B1012007B000BD054843
:1021700000F020FCF9E700000010024040420F0090
:10218000002C0140800100200F4808B5816941F012
:1021900001018161816901F001010091C16941F092
:1021A0008051C161C069002200F0805000900F2171
:1021B000901E00F01BF80548416821F0E06141F0F5
:1021C0000071416008BD00000010024000000140A5
:1021D000002809DB00F01F02012191404009800026
:1021E00000F1E020C0F8001170470000F0B40E4B81
:1021F0001B680C46C3F30223C3F10705042D00D965
:102200000425191D072901D2002300E0DB1E012649
:1022100006FA05F1491E214099409E40761E16405F
:102220003143F0BC01F07BBB0CED00E0064900F04F
:10223000070208684FF6FF03184040EA0220034AED
:1022400010430860704700000CED00E00000FA0544
:102250002DE9F84305460078354CC00754D0E069B5
:102260000026C00008D4E06940F08050E061E069D9
:10227000012600F0805000902E480168C90512D454
:102280000168804641F480710160FFF723FF074633
:1022900005E000BFFFF71EFFC01B642823D8D8F855
:1022A0000000C005F6D5206A10F4407021D0A9883E
:1022B00001F4407181421CD0206A1F49012220F4A0
:1022C00040700A6000220A602062C00711D0FFF748
:1022D00001FF074641F2883808E000BFFFF7FAFE29
:1022E000C11B414502D90320BDE8F883206A80075D
:1022F000F4D5206A696820F44070084320621EB15A
:10230000E06920F08050E0612878800705D560689A
:10231000A96820F44040084360602878C00605D5CD
:102320006068E96820F48000084360600020DBE713
:102330000010024000700040400442422DE9F04786
:102340000F46050061D0434E306800F00700B842E8
:1023500009D2306820F0070038433060306800F060
:102360000700B84251D128683B4C810712D540077D
:1023700003D5606840F4E06060602878000703D50A
:10238000606840F4605060606068A96820F0F00008
:10239000084360602878C00728D06868012810D0FA
:1023A0002168022810D0890700292EDA616821F0FF
:1023B000030101436160FFF78DFE804641F28839D9
:1023C0000DE021688903EFE78901EDE7FFF782FE61
:1023D000A0EB0801494502D90320BDE8F0876068F9
:1023E000696800F00C00B0EB810FEFD1306800F0AD
:1023F0000700B8420BD9306820F00700384330603E
:10240000306800F00700B84201D00120E5E72878E5
:10241000400705D56068E96820F4E0600843606023
:102420002878000706D56068296920F4605040EAE2
:10243000C100606000F058F86168084AC1F30311F8
:10244000515CC8400649086006480068FFF762FE14
:102450000020C2E700200240001002407877000808
:10246000340000202C0000200F2202600C4A536828
:1024700003F003034360536803F0F0038360536881
:1024800003F4E063C36052684FF4E06303EAD202EE
:1024900002610448006800F007000860704700000F
:1024A00000100240002002400448054900684968C5
:1024B000044AC1F30221515CC84070473400002037
:1024C0000010024088770008044805490068496800
:1024D000044AC1F3C221515CC84070473400002057
:1024E000001002408877000812A185B00FC98DE85E
:1024F0000F0014A0144A006804905168134801F0BA
:102500000C03042B10D0082B0ED1C1F38343C90355
:102510001DF803000AD5516804AAC1F34041515C7B
:102520000A4A5043B0FBF1F005B0704708494843F0
:10253000FAE7000002030405060708090A0B0C0D60
:102540000E0F1010010200000010024000127A006D
:1025500000093D002DE9F84F040070D02078C04DEF
:10256000C00749D06868C0F38100012807D06868B7
:10257000C0F38100022809D16868C00306D5286825
:10258000800339D560680028E7D035E06068B0F591
:10259000803F0BD010B1B0F5A02F11D0286820F4E7
:1025A00080302860286820F4802002E0286840F409
:1025B00080302860606890B1FFF78CFD06460AE025
:1025C000286840F480202860F0E700BFFFF782FD14
:1025D000801B642873D828688003F7D50CE0FFF7C8
:1025E00079FD064605E000BFFFF774FD801B6428F7
:1025F000F0D828688003F7D420789A4E80074FF0EF
:1026000001094FF0000839D5686810F00C0F07D0A9
:102610006868C0F38100022809D16868C00306D445
:102620002868800714D52069012808D110E02069A6
:10263000B0B1C6F80090FFF74DFD074605E00AE18E
:10264000FFF748FDC01B0228C4D828688007F7D5CB
:102650002868616920F0F80040EAC10028600DE0B8
:10266000C6F80080FFF736FD074604E0FFF732FDAD
:10267000C01B022823D828688007F7D420780007D9
:102680002CD57948A169D9B1C0F80090FFF722FD97
:10269000074604E0FFF71EFDC01B02280FD8686A3A
:1026A0008007F7D571484FF4FA510068B0FBF1F09C
:1026B000009000BF0098411E0091FAD20EE080E029
:1026C000C0F80080FFF706FD074604E0FFF702FDB3
:1026D000C01B022875D8686A8007F7D420784007A5
:1026E00060D5E8690027C00008D4E86940F0805050
:1026F000E861E869012700F0805000905C480168BB
:10270000C90513D40168834641F480710160FFF765
:10271000E1FC824606E000BFFFF7DCFCA0EB0A000C
:1027200064284ED8DBF80000C005F5D5E068012824
:102730000AD008B1052813D0286A20F001002862C9
:10274000286A20F0040002E0286A40F001002862B4
:10275000E06841F2883B98B1FFF7BCFC82460BE091
:10276000286A40F004002862EEE700BFFFF7B2FCE1
:10277000A0EB0A0159455AD8286A8007F6D50CE023
:10278000FFF7A8FC824605E0FFF7A4FCA0EB0A01D6
:1027900059454CD8286A8007F6D41FB1E86920F063
:1027A0008050E861E06988B36968C1F3810102295A
:1027B00044D00228C6F8608004D0FFF78BFC0446A2
:1027C00038E034E0FFF786FC074604E0FFF782FCC0
:1027D000C01B02282BD828688001F7D4206AB0F5E6
:1027E000803F05D16868A16820F400300843686024
:1027F000D4E908010843696821F47411084368604A
:10280000C6F86090FFF766FC044606E025E000BFCE
:10281000FFF760FC001B022809D828688001F7D563
:102820001BE000BFFFF756FC001B022802D9032063
:10283000BDE8F88F28688001F4D40EE00128F7D0B5
:102840006868226A00F48031914204D1616A00F420
:102850007010884201D00120EAE70020E8E700007C
:102860000010024000004242800442423400002036
:10287000007000407047704770B590F83C20012A06
:1028800026D0012480F83C40022280F83D200368D5
:102890005A689D6822F070060A6832435A600D4BF0
:1028A00002689A4208D0B2F1804F05D00A4B9A4292
:1028B00002D00A4B9A4204D1496825F0800319439B
:1028C000916080F83D40002180F83C10084670BDC2
:1028D000022070BD002C01400004004000080040B0
:1028E00010B5040003D094F83D0010B107E00120BA
:1028F00010BD002084F83C00204600F01FF80220A4
:1029000084F83D00211D206800F05EFE012084F85F
:10291000460084F83E0084F83F0084F8400084F8C4
:10292000410084F8420084F8430084F8440084F8AD
:10293000450084F83D00002010BD000008B5006887
:102940000649884208D10648C16941F00201C161C7
:10295000C06900F00200009008BD000000040040C3
:102960000010024090F83D10012901D0012070476D
:10297000022180F83D1000680B49884208D0B0F170
:10298000804F05D00949884202D00949884204D1C4
:10299000816801F00701062903D0016841F00101B7
:1029A0000160002070470000002C0140000400403E
:1029B0000008004090F83D10012901D00120704727
:1029C000022180F83D100168CA6842F00102CA6025
:1029D00000680B49884208D0B0F1804F05D0094902
:1029E000884202D00849884204D1816801F0070179
:1029F000062903D0016841F0010101600020704701
:102A0000002C0140000400400008004070B504465E
:102A100090F83C00012817D0012584F83C50022092
:102A200084F83D002068826822F0770222F47F4219
:102A300082600868502830D00DDC20284DD005DC9D
:102A400098B310283BD148E0022070BD302844D014
:102A5000402834D139E0602828D0702806D0B0F55D
:102A6000805F2CD0B0F5005F29D10AE0CB68D1E9B6
:102A70000121206800F0DEFD2068816841F07701C7
:102A800009E0CB68D1E90121206800F0D3FD20687E
:102A9000816841F48041816011E0CA68496820681A
:102AA00000F0DAFD5021206807E016E0CA684968A6
:102AB000206800F0E2FD6021206800F0C5FD84F888
:102AC0003D50002084F83C0070BDCA684968206809
:102AD00000F0C2FD40212068EFE722680146104661
:102AE000EBE7704770B50446006801694FF00005D8
:102AF000C943890715D4C168C943890711D4E91EA0
:102B0000016101202077206880698007204602D07B
:102B1000FFF7E7FF04E000F098F8204600F096F891
:102B2000257720680169C943490717D4C168C9439B
:102B3000490713D46FF00401016102202077206857
:102B4000806910F4407F204602D0FFF7CAFF04E0FE
:102B500000F07BF8204600F079F8257720680169BD
:102B6000C943090716D4C168C943090712D46FF0D5
:102B700008010161042020772068C0698007204691
:102B800002D0FFF7AEFF04E000F05FF8204600F04F
:102B90005DF8257720680169C943C90617D4C16863
:102BA000C943C90613D46FF01001016108202077D2
:102BB0002068C06910F4407F204602D0FFF791FFE3
:102BC00004E000F042F8204600F040F82577206845
:102BD0000169C943C90708D1C168C943C90704D1FC
:102BE000891E0161204600F033F820680169C9435D
:102BF000090609D4C168C943090605D46FF08001EC
:102C000001612046FFF736FE20680169C943490685
:102C100009D4C168C943490605D46FF04001016178
:102C2000204600F01FF820680169C94389060BD4CB
:102C3000C168C943890607D46FF0200101612046AD
:102C4000BDE87040FFF717BE70BD704770470000C9
:102C500000680349884201D1FFF742BA704700007B
:102C6000002C01407047704770470000F8B50268BB
:102C700004461068D168536910F00F0F4FF000053B
:102C800053D003F0010601F4907737435FD0C207B9
:102C900005D0CA0503D5226C42F001022264420726
:102CA00005D5DA0703D0226C42F0020222648207C3
:102CB00005D5DA0703D0226C42F004022264020731
:102CC00007D501F02002324303D0226C42F0080203
:102CD0002264226C002A34D0800604D5880602D5EE
:102CE000204600F0FCFC20684069216CC0F3801095
:102CF000090700D430B3204600F0D9FC20684169B0
:102D000049061BD5416921F040014161A06BA8B182
:102D100058494163A06BFFF785F8002811D0A06BDC
:102D2000416B01B0BDE8F040084783060FD58B0624
:102D30000DD52046BDE8F84000F0D1BC2046FFF795
:102D400093FFF8BD2046FFF78FFF2564F8BD266B83
:102D50002023012E52D1C60650D5CE064ED510687E
:102D600050680090506940062AD5A16B08684068F9
:102D70000004000CEAD0A68D8642E7D9E085886978
:102D8000202818D0D06820F48070D0602068416975
:102D900021F0010141612068416921F04001416158
:102DA00084F83E3025632068C16821F01001C160BD
:102DB000A06BFFF713F8A08DE18D401A81B219E0E6
:102DC000A08DE18D401A81B2E08D0028BED000298F
:102DD000BCD0D06820F49070D0602068426922F0A6
:102DE0000102426184F83E3025632068C26822F007
:102DF0001002C2602046FFF736FFF8BD05062BD54E
:102E00000D0629D594F83D002128F6D1A068B0F52B
:102E1000805F01D12069B0B1206A411C2162216824
:102E200000784860E08C401E0004000CE084E4D18F
:102E30002068C16821F08001C1602068C16841F04C
:102E40004001C160F8BD206A0088C0F308005060EE
:102E5000206A801C2062E5E74006F3D54806F1D5DC
:102E6000D168204621F04001D16084F83D3000F067
:102E700004F9F8BD9F36000870B5040004D094F83A
:102E80003D00002510B106E0012070BD84F83C50E3
:102E9000204600F023F8242084F83D002068C16813
:102EA00021F40051C160204600F074FC20680169E3
:102EB00021F4904101612068416921F02A014161BA
:102EC0002068C16841F40051C1602564202084F865
:102ED0003D0084F83E00002070BD000030B585B094
:102EE00000240094019402940394006818498842D5
:102EF0002CD11848816941F480418161816901F4D4
:102F000080410491816941F0040181618069124D21
:102F100000F0040004904FF4007000900220019033
:102F20000320039069462846FEF7DAFF2815CDE90D
:102F30000004694628460294FEF7D2FF00220521CC
:102F40002520FFF753F92520FFF742F905B030BDE2
:102F500000380140001002400008014090F83E3067
:102F6000202B0ED159B152B190F83C30012B08D032
:102F7000012380F83C300023036300F067BC01208C
:102F8000704702207047000000680C49884214D145
:102F90000B498A780D2A05D00A4BC8781A54401C70
:102FA000C87003E00020C87001200870044905487B
:102FB0000122891C8C30FFF7D1BF704700380140D7
:102FC00000000020B00000202DE9F843044690F8EE
:102FD0003D001F4616460D4620284CD1C5B1BEB156
:102FE00094F83C00012846D0012084F83C004FF0C2
:102FF0000008C4F84080212084F83D00FFF76AF8FB
:10300000A6848146E684A068B0F5805F03D004E022
:103010000120BDE8F883206928B12E465FF0000545
:1030200084F83C800EE00026FAE78021204600F07C
:1030300028FCA0B9AEB116F8010B21684860E08CFD
:10304000401EE084E08C4B464FF0000200970028C1
:10305000EBD14FF04001204600F013FC30B10320CB
:10306000D7E735F8020BC0F30800E6E7202084F824
:103070003D000020CDE70220CBE77047FEE70000CF
:103080003EB5002410480094019402940D498460D8
:10309000016004730475012505614FF460214460EB
:1030A000C161FEF771FD08B172B6FEE70095CDE98A
:1030B000015469460448FEF74FFC002801D072B65F
:1030C000FEE73EBD00240140C400002070B586B07C
:1030D00000241C480094019402940394816941F0F7
:1030E00020018161816901F020010491816941F031
:1030F00004018161816901F004010491816941F059
:10310000080181618069104E00F008004FF400450D
:103110000490002229463046FEF7D7FFE810CDE99B
:103120000004694630460294FEF7DAFE012000955D
:10313000CDE901040220039069463046FEF7D0FE37
:1031400006B070BD00100240000C014010B586B002
:1031500000241748009401940294039404941349A2
:10316000059401604721C0E901144FF6FF71C0E9E1
:1031700003148461FFF7B4FB08B172B6FEE74FF4A5
:103180008050009069460A48FFF740FC08B172B6CB
:10319000FEE7049404A906480594FFF76DFB002898
:1031A00001D072B6FEE706B010BD0000000400407A
:1031B000F4000020FEE7FEE708B500F089FD194C99
:1031C000194D4FF0FF3600903146206A00F0D0FDD7
:1031D00000F07EFD024615A02968FDF753F800981F
:1031E000A1680844009000F027FC1448FEF790FD09
:1031F0003220FEF763FEE06803F044FF02460B4610
:103200000FA0FDF73FF800F063FD024611A029680A
:10321000FDF738F8206A00F03DFE009800F03AFD16
:10322000D2E7000000000020207700080A25732064
:103230004025643A20456E7465722100C400002068
:103240000A48756D69646974793A2025322E3266B0
:10325000252500000A2573204025643A2045786919
:1032600074210A0008B500F033FD009015484FF0B6
:10327000FF38154C154E03F005FF0F460546414635
:10328000206A00F075FD00F023FD024610A03168B1
:10329000FCF7F8FF00F0F0FB2A463B4610A0FCF7D5
:1032A000F1FF00F015FD024611A03168FCF7EAFFBE
:1032B000206A00F0EFFD0098A1680844009000F03B
:1032C000E9FCDCE700E87D470000002044770008C7
:1032D0000A2573204025643A20456E7465722100EA
:1032E0000A4C696768743A2025322E326600000065
:1032F0000A2573204025643A2045786974210A0024
:1033000008B500F0E5FC2E4D2E4C4FF0FF36009036
:103310003146206A00F02CFD2078012802D00028D8
:1033200042D045E000F0D4FC024627A02968FCF713
:10333000A9FF00F0C1FB284928A0FCF7A3FF2648FD
:10334000FEF7F2F96078012801D0C0B11EE02248F2
:1033500000F000FCA16825A0FCF794FF29A0FCF771
:1033600091FFDFF8C4804FF4805739464046FEF79E
:10337000A7FE0028F9D02DA0FCF784FF06E031A0BD
:10338000FCF780FFA16819A0FCF77CFF00202070EB
:10339000009800F57A70009000F09AFC02462DA08B
:1033A0002968FCF76FFF03E0009800F57A70009041
:1033B000206A00F06FFD009800F06CFCA8E70000A8
:1033C000D8760008000000200A2573204025643AC2
:1033D00020456E7465722100B00000200A436F6DB5
:1033E0006D616E643A202573000000000A4E6F770D
:1033F00020706572696F642074696D65203A2025BC
:10340000640000000A507265737320427574746F13
:103410006E20746F20436F6E6669726D2043686121
:103420006E67652100000000000C01400A436861DE
:103430006E676520697320636F6E6669726D65647F
:10344000210000000A57726F6E6720436F6D6D6137
:103450006E6421000A2573204025643A206578694E
:1034600074210A0086B04FF400431A4A1A4968468C
:10347000FEF793F900F02CFC184C194D4FF0FF3675
:1034800004903146206A00F073FC00F021FC0246F3
:1034900014A02968FCF7F6FE00F02EFB6846FEF744
:1034A000B0F903F0EFFD02460B4612A0FCF7EAFE6E
:1034B00000F00EFC024613A02968FCF7E3FE206A28
:1034C00000F0E8FC0498A1680844049000F0E2FBD6
:1034D000D7E70000000C0140F400002000000020AD
:1034E000FC7600080A2573204025643A20456E7456
:1034F000657221000A54656D703A2025322E3266BD
:10350000000000000A2573204025643A20457869B0
:1035100074210A0010B5502080F31188BFF34F8F3B
:10352000BFF36F8F02F002FE18B104494FF08050D4
:103530000860002080F3118810BD000004ED00E059
:1035400030B593B028216846FDF73AF814210AA84F
:10355000FDF736F8002501200F951095119501040F
:1035600012958DE8230004904FF4E010CDE9081087
:10357000022407946846FEF7EDFF08B172B6FEE735
:103580000AA90F2081E831004FF48060CDE90D05D4
:1035900002210AA8FEF7D2FE08B172B6FEE74FF488
:1035A000404011900F940FA8FEF752FE002801D062
:1035B00072B6FEE713B030BD704700000148FFF758
:1035C00091BA000080010020F0B50268164B174C3C
:1035D000174D4FF08047984205D0B84203D0A04223
:1035E00001D0A84203D122F070064A6832439842C3
:1035F00005D0B84203D0A04201D0A84203D122F4A2
:103600004074CA6822434C6922F08002224302605F
:103610008A68C2620A688262984201D109690163BC
:1036200001214161F0BD0000002C01400004004078
:103630000008004010B5846842EA032224F47F4465
:103640000A432243826010BD826822F070020A435E
:1036500042F007018160704710B5036A046A24F0E4
:1036600001040462846924F0F00444EA021423F0A3
:103670000A020A438461026210BD10B5036A23F096
:10368000100303628369046A23F4704343EA02323D
:1036900024F0A00343EA01118261016210BD10B55C
:1036A000406A0021C185C184FFF7DEFA10BD0168C0
:1036B000CA6822F49072CA6001684A6922F0010265
:1036C0004A61016B012904D10168CA6822F0100225
:1036D000CA60202180F83E1000210163704708B5C0
:1036E00090F83E10222901D0022008BD82684FF4D4
:1036F00080539A4201D1016921B1816A9A421BD05B
:103700004AB10AE00268816A5268C2F308020A807C
:10371000816A891C08E0026972B10268526802F08D
:103720007F020A70816A491C8162C18D491E0904A9
:10373000090CC18503D019E002685268F1E70168FD
:10374000CA6822F02002CA600168CA6822F4807246
:10375000CA6001684A6922F001024A61202180F8AA
:103760003E10016B012903D0FFF70EFC002008BDBD
:10377000002101630168CA6822F01002CA60016872
:103780000A68D20602D50A6849680091818DFFF760
:103790006AFAEBE770B5044600680169E26821F453
:1037A0004051114301612169A068084361690843E0
:1037B0002168CA6841F20C639A430243CA602068D8
:1037C0004169A26921F44071114341611E49206899
:1037D000884202D1FEF778FE01E0FEF765FE00EBBD
:1037E000C00101EB0012606864218000B2FBF0F3BD
:1037F000B3FBF1F36FF018067343B2FBF0F5B2FBC5
:10380000F0F605EB8305322303EB0515B5FBF1F567
:10381000B6FBF1F605F0F00505EB0615B2FBF0F688
:10382000B2FBF0F0B0FBF1F06FF01802504306EB82
:10383000800003EB0010B0FBF1F0216800F00F00F6
:103840002844886070BD0000003801408162828594
:10385000C28500210164222280F83E2080F83C10BD
:103860000168CA6842F48072CA6001684A6942F01D
:1038700001024A610068C16841F02001C160002076
:1038800070472DE9F041984617460E460446069DBE
:103890001DE0681C1BD02DB1FEF71CFCA0EB08003E
:1038A000A84214D92068C16821F4D071C160206891
:1038B000416921F001014161202084F83D0084F834
:1038C0003E00002084F83C000320BDE8F081206821
:1038D000006836EA000004D00020B842D9D00020A9
:1038E000F3E70120F9E700000148FFF7BFB9000046
:1038F0003C010020FEE7490050EAC12018BF042027
:103900004A0D18BF40F0010040F2FF72B2EB515F68
:1039100008BF40F00200012808BF052070470907D2
:10392000090E002804DB00F1E02080F80014704745
:1039300000F00F0000F1E02080F8141D70472DE921
:10394000F0414F1E00EBC7010446D1E900011546C6
:103950001E4637F006020DD02A46334603F082F8A1
:103960007F1E04EBC703D3E9002302F0D3FD37F039
:103970000602F1D1022F25D0042F13D0062F18BF35
:10398000BDE8F0812A46334603F06CF8D4E90A23F7
:1039900002F0C0FD2A46334603F064F8D4E9082358
:1039A00002F0B8FD2A46334603F05CF8D4E906235A
:1039B00002F0B0FD2A46334603F054F8D4E904235C
:1039C00002F0A8FD2A46334603F04CF8D4E902235E
:1039D00002F0A0FD2A46334603F044F8D4E9002360
:1039E000BDE8F04102F096BD0022134610460149A1
:1039F00002F04CBE0000F03F02F08CBD00221346E6
:103A00001046114602F042BE40F2013200204FF053
:103A1000E04103F01ABE0000024A0020110703F043
:103A200014BE000001FDFFFF30380A2801D201203A
:103A3000704700207047000000B587B01C2206A127
:103A40006846FCF783FD6423182269460948FFF79E
:103A5000BBFA07B000BD00000A48756D6954617378
:103A60006B2069732072756E6E696E67202E2E2032
:103A7000000000003C01002000B587B01C2206A118
:103A80006846FCF763FD6423192269460948FFF77D
:103A90009BFA07B000BD00000A4C69676874546166
:103AA000736B2069732072756E6E696E67202E2E9F
:103AB000200000003C01002000B587B01C2206A1B8
:103AC0006846FCF743FD64231B2269460948FFF75B
:103AD0007BFA07B000BD00000A53657454696D6538
:103AE0005461736B2069732072756E6E696E672006
:103AF0002E2E20003C01002000B587B01C2206A11C
:103B00006846FCF723FD6423182269460948FFF73D
:103B10005BFA07B000BD00000A54656D7054617314
:103B20006B2069732072756E6E696E67202E2E2071
:103B3000000000003C0100200020704713B54FF644
:103B4000FF73012269460248FFF73EFA00981CBD48
:103B50003C0100202DE9FE430026024634460820A1
:103B6000E946115C3039092906D809EB0003641CC9
:103B700003F8081CE4B201E00A2902D2401C142810
:103B8000EFDB002520E0601B401E02F004FF024630
:103B90000B4600200F4900F007FA0746884619F83F
:103BA000050002F00FFF3A46434602F05BFF07466E
:103BB0008846304602F006FF3A46434602F0AAFC29
:103BC00002F0BCFE06466D1CA542DCDB02488660A6
:103BD000BDE8FE830000244000000020FEF788FAC4
:103BE000FFF7AEFCFFF772FAFFF74AFA22482149C5
:103BF0000C2201604FF4E131416000218160C1601D
:103C0000C0E904128161C161FFF736F908B172B6EB
:103C1000FEE7FFF79BFA012218491748FFF79EF9C4
:103C200000F06AF80121164A084600F0DBF8134C50
:103C3000134AA41E903A20620021124800F062F953
:103C40000F4A20616C3A00210F4800F05BF90C4AE2
:103C50006061483A00210D4800F054F9084AA0611B
:103C6000243A00210A4800F04DF9E06100F060F8C4
:103C7000FEE70000003801403C0100200200002067
:103C8000687700080133000865340008B93100087E
:103C90006532000838B50546EFF3058048B9EFF303
:103CA000108030B909480068022805D1EFF311806F
:103CB00010B16FF0050407E0002402F029FA291A78
:103CC0000090684601F008FC204638BD88000020BE
:103CD000EFF3058048B9EFF3108030B9054800686C
:103CE000022804D1EFF3118008B102F017BA02F0F4
:103CF0000FBA000088000020EFF3058058B9EFF3F9
:103D0000108040B909490868022801D030B109E0A3
:103D1000EFF3118030B16FF00500704701200860AB
:103D2000002070474FF0FF307047000088000020EF
:103D300010B5EFF3058060B9EFF3108048B90B4977
:103D40000868022802D0012806D00BE0EFF31180AA
:103D500040B16FF0050010BD0220086001F08CFC3E
:103D6000002010BD4FF0FF3010BD00008800002083
:103D7000F8B50D460024211F4E1C00280ED000BFB0
:103D8000EFF305824AB9EFF3108232B9134A126891
:103D9000022A17D1EFF31182A2B10DB10C461BE03C
:103DA00000216A46009102F009F8012813D1009819
:103DB00090B10B494FF080500860BFF34F8FBFF3B5
:103DC0006F8F09E0294602F047F8012804D015B1A9
:103DD0006FF0010400E034462046F8BD8800002062
:103DE00004ED00E0F8B5144603460E464FF000051A
:103DF000EFF30580E8BBEFF31080D0BB24480068E8
:103E0000022802D1EFF3118098BB93B39E423DD8B4
:103E10004CB1A0680028E06803D0502836D30120B8
:103E200002E008B132E00020012B05D010B31846A3
:103E3000A26801F010FD20E040B1032000900022B4
:103E400011460120A36801F04AFD04E0032200218D
:103E5000012001F020FD050018D086B100231A468C
:103E6000194601F0B3FD012809D0284601F0E6FA11
:103E700000250BE0184601F0D1FC050006D00CB17E
:103E8000216800E00021284601F0C4FA2846F8BD68
:103E90008800002038B50024E51E002804D000BFAB
:103EA000EFF3058169B902E06FF0030423E0EFF35B
:103EB000108131B911490968022914D1EFF3118138
:103EC00089B100210091694601F08EFE012811D1CF
:103ED000009880B10A494FF080500860BFF34F8FBF
:103EE000BFF36F8F07E000231A46194601F06EFDFD
:103EF000012800D02C46204638BD00008800002054
:103F000004ED00E0F0B585B04FEA01034FF0000486
:103F1000EFF305810394A1BBEFF3108189BB214925
:103F20000968022902D1EFF3118151BB48B3802601
:103F300018218DF8104004AD42B3176807B13D4613
:103F400097691FB139467F1E382F02D21779FF07B4
:103F500002D0002005B0F0BD576907B1BE08D2F805
:103F600008C0BCF1000F0DD0D4685C2C18D31269C6
:103F70003AB137B18DE806103246294602F08FF883
:103F800003900DE0D7685FB912694AB903AACDE979
:103F90000012B2B2294602F055F8012800D003946D
:103FA0000398D7E7880000202DE9F04D1D460C4608
:103FB00098B0174621F0004123F00043002814BFB9
:103FC0004FF0010C4FF0000C0CEB440CFE4A0CEBD4
:103FD00002064FEA620C66452BD33E0018BF01264D
:103FE00006EB45061644F94A964222D3F84A53EAAC
:103FF000070C02D0944205D148B918B000201146F0
:10400000BDE8F08D002808BF4FF0000C01D04FF044
:10401000010C0CEB440212F5001F0AD8002F14BF4C
:104020004FF0010C4FF0000C0CEB450212F5001F95
:1040300007D918B03A462B462146BDE8F04DFFF7A8
:10404000DBBC0022DFF88CA3002CB8BF534526DA76
:10405000DFF884C36345A8BF022220DADFF870C30B
:104060009C451CDCDFF874C30CEB235CBCF1140F23
:1040700008DDCCF1340627FA06FC0CFA06F6BE423F
:104080000DD108E05FB9CCF1140623FA06FC0CFA56
:1040900006F69E4203D10CF00102C2F1020251EA7F
:1040A000000C19D1002D17DA002C18BF022A01D0FC
:1040B000012A07D00220FCF7B2FA18B0BDE8F04D93
:1040C000FFF792BC0220FCF7AAFAFFF78DFC18B0AC
:1040D00081F00041BDE8F08DB7F1000C6CD1534583
:1040E00025D104F1804212F5801201BF0028002082
:1040F000B74918B008BFBDE8F08DB548884207DC65
:10410000002DA1BF6046294618B0BDE8F08D07E03C
:10411000281E05DA80F0004118B06046BDE8F08D39
:10412000AF497944D1E9000118B0BDE8F08DDFF85E
:10413000A0C2634525D1002D1FDA19B1514512D116
:10414000D8B909E0002840F0EC82A24A214618B014
:1041500062F31E01BDE8F08D0020214618B060F327
:104160001E01BDE8F08D08DA18B02346BDE8F04D19
:1041700002460020614602F089BA18B02146BDE827
:10418000F08D514518DAB5F1804F0DD0A5F1005CE6
:10419000BCF1FF5C10D1B4F1000C0DDB18B061462E
:1041A000BDE8F04D01F016B8234618B00246BDE850
:1041B000F04D194602F056BC060024F0004C3BD1ED
:1041C000D9B1514533D1002C06DD002DA1BF00200F
:1041D000514618B0BDE8F08D002C01DD002D1BDB31
:1041E000002C13DA002D11DB012A4FF0000014BF60
:1041F00078497C4918B0BDE8F08D022A18BF002C20
:104200000AD0012A08D1002C06DA0AE0002CB8BF37
:10421000002D11DA012A04D0002018B00146BDE8B3
:10422000F08D18B000204FF00041BDE8F08DA1F1F5
:104230004050B0F17F601AD0012000EBE47050EAEA
:10424000020421D0624C521E4FF0000B104304BFF9
:104250004FF0000B644C654883427CDD644A65483E
:1042600093421FDD884217DB002D25DB37E0002C51
:1042700000DA4AB1022A0CBF01204FF0FF3018B01B
:10428000BDE8F04D02F087BB0120FCF7C8F918B07B
:10429000BDE8F04DFFF7B2BB4D4A8A4202DC002D6B
:1042A0000ADC1CE0814202DA002D18DA04E0484BF7
:1042B000994220DD002D12DD0220FCF7B0F9FFF756
:1042C000A3FB05460E46002253465846214602F0FF
:1042D000C9FB18B066F31E012846BDE8F08D022028
:1042E000FCF79DF9FFF798FB0A46214618B062F3E8
:1042F0001E01BDE8F08D00223046614602F0D8FD77
:1043000080460E466FF0010203F09FF94FF05532E0
:10431000394B02F0DBFC4246334602F0A3FB00229D
:10432000364B02F0D3FC8246424633460491104697
:10433000194602F097FB5246049B02F093FB8A4613
:1043400000904FF0C0422E4B4046314602F08AFBAF
:104350002C4A2B4B00E027E0CDE90601514600989E
:1043600002F080FB82460191274A284B40463146A5
:1043700002F078FB5246019B02F09AFD82460B4602
:1043800002460591DDE9060102F0C4F8DDE90623E5
:1043900000268846304602F08BFD5246059B02F00F
:1043A00095FC024600F07EB90020B1F5801F07DAC7
:1043B00035223046614603F048F906466FF0340076
:1043C00000EB215024E00000FFFF1F00FFFF0F0063
:1043D0000000F03F0000F07F0000404301FCFFFFC1
:1043E000F23600000000F0FF0000F0BF0000E041E6
:1043F0000000F043FFFFEF3F5555D53F0000E03F81
:104400004715F73FFE822B6544DF5DF80BAE543E47
:10441000A0F2FF300190C1F3130040F07F6141F042
:1044200040510291FE498842D8BF002004DDFD4979
:104430008142C8BF012001DD0D9008E000200D90F1
:104440000198401C01900298A0F5801002900299FA
:10445000F54878440B910D9900EBC100D0E9002399
:104460000F9330460A920B9902F022FDCDE9060126
:10447000DDE90A2130460F9B02F04CF802460B465C
:104480000020EA4902F002F9059102460B4600902D
:10449000DDE9060102F0E6FA1490E5488A464FF09D
:1044A000000878440299006812904FF0005040EAEA
:1044B00061010D980F9B01EB804000F500210991EF
:1044C0000A9A129802F0F4FC32460B9B02F0FEFBB3
:1044D0004246534602F0C6FA06460291404651460D
:1044E000099B129A02F0BEFADDE9062302F0EEFB08
:1044F0003246029B02F0DCFC059B009A02F0B2FA05
:104500000091149A049053461046194602F0AAFAF4
:1045100006460246C7480B46029106217844FFF73B
:104520000EFACDE90510029B32461046194602F0FC
:1045300099FADDE9053202F095FA059106465346EF
:1045400040461946149A01F0E5FF009B049A02F0D8
:1045500089FA3246059B01F0DDFFCDE905104246A0
:1045600053461046194602F07DFA0022B24B0291E2
:104570000A9001F0CFFFDDE9053201F0CBFF0E46D6
:104580004246AD4B404602F093FC029B0A9A02F071
:104590008FFCDDE9053202F099FB424602910A9058
:1045A00033461046514602F05DFACDE90601534606
:1045B000149A02990A9802F055FA8A4602903346F4
:1045C00042460099049802F04DFA5346029A01F0CF
:1045D000A1FF82460B4602460591DDE9060101F086
:1045E00099FFDDE9062300208846064602F060FCBC
:1045F0005246059B02F06AFB824609914FF06042E9
:104600008E4B3046414602F02DFA049006918C4ABA
:104610008A4B5046099902F025FA82460291894A4E
:10462000894B3046414602F01DFA5246029B01F08A
:1046300071FF864B7B440D9A03EBC203D3E9002341
:1046400001F068FF0E900791019802F0A4F905911E
:10465000DDE9061382460E9A049801F05BFF7C4A5E
:104660007A440D9B02EBC303D3E90023009302922B
:1046700001F050FF5246059B01F04CFF0026884692
:1046800052463046059B02F013FC009B029A02F052
:104690000FFC069B049A02F00BFC079B0E9A02F09B
:1046A00015FB024600200B4602903846294602F0D0
:1046B000D9F9824601912B4638461946029A02F0F2
:1046C000F7FB3246434602F0CDF95246019B01F01A
:1046D00021FF07468A46324643462946029802F0A1
:1046E000C1F905460E463A46534601F013FF594AB2
:1046F0008846914221DBA8EB020353EA000210D165
:104700002A46334602F0D4FBCDE90401524A534B0A
:104710003846514601F0FEFEDDE9042302F0A0FA1E
:1047200021D20220FBF77BFFFFF76EF90A462146F4
:1047300018B062F31E01BDE8F08D494B28F000422D
:104740009A4210D3474A08EB020353EA00027FF46F
:10475000C6AD2A46334602F0ABFB3A46534602F05A
:104760007FFA7FF6BCAD0022019228F000403E495E
:104770003E4A01EB2051824223DA481C4FF480115B
:1047800021FA00F040443A4AC0F30A517A44394BC6
:10479000A1F2FF31CB4020EA0303C0F3130040F441
:1047A0008010C1F11401C84012680190B8F1000FE7
:1047B000BCBF404201902846314602F079FB0546D5
:1047C0000E462A4633463846514601F0A3FE4FF0C6
:1047D00000084246284B4046059102F043F9CDE9D6
:1047E0000601264A264B4046059902F03BF9009106
:1047F00002902A4633464046059902F059FB3A4654
:10480000534602F063FA1F4A1F4B02F02BF9009B3C
:10481000029A01F07FFE0746884602460B4635E0C5
:104820008E9803007AB60B003A3300000000F03F88
:1048300072330000A03200000000084009C7EE3FBC
:10484000FD033ADCF5015B14E02F3EBE7831000039
:104850003C31000000009040FE822B654715973CDC
:1048600000CC904000346F3F01FCFFFF0000E03FB0
:1048700088300000FFFF0F00432EE63F396CA80C84
:10488000615C20BEEF39FAFE422EE63FDDE906010B
:1048900001F040FEDDE9062305460E4602F008FB66
:1048A0003A46434602F012FA0F462A463346009033
:1048B0001046194602F0D6F8824602462E4888462F
:1048C0000B4605217844FFF73AF85246434602F07A
:1048D000C9F82A46334602F0F9F980468A463B4633
:1048E00028463146009A02F0BDF83B46009A01F096
:1048F00011FE0691009000224FF080434046514641
:1049000002F0D6FA0F460C904246534628463146EE
:1049100002F0A8F83B460C9A01F0B8FE069B009AFC
:1049200002F0C6FA2A46334602F0C2FA0022134BBE
:1049300002F0CCF9054601980E4601EB005108152E
:10494000002810DC28463146019A02F07EFEFEF770
:10495000D2FF042808BFFFF75FF828463146019AC6
:1049600002F073FE05460B4618B02A46584621460B
:10497000BDE8F04D02F076B8282F00000000F03FAF
:104980002DE9F041134C0F46054666692068001D6D
:1049900000F046FC681C07D137B12168BDE8F04142
:1049A0000D48091D00F08CBC20683544B5424560B7
:1049B000216805D2A068BDE8F041091D00F068BC7F
:1049C0006068091D00F064FC206B854200D22563FD
:1049D000BDE8F08138000020B80600202DE9F04144
:1049E000054600F079FC2D4C2069401C20612068B0
:1049F0002B4F10B1E06930B32BE02560206901280E
:104A000027D1002606EB860007EB800000F032FC81
:104A1000761C382EF6D3234800F02CFC21481430A5
:104A200000F028FC1F48283000F024FC1D483C30D2
:104A300000F020FC1B48503000F01CFC194860605E
:104A40001430A06005E02068E96AC06A884200D896
:104A50002560E06A401CE0626864E86AA1698842F7
:104A600000D9A06100EB800007EB8000291D00F059
:104A700027FC00F051FCE06900280CD02068E96AAE
:104A8000C06A884207D208494FF080500860BFF3DF
:104A90004F8FBFF36F8FBDE8F0810000380000201A
:104AA000080200206806002004ED00E038B500F0A0
:104AB00013FC104CA068C8B90F4800F0DBFB0E488F
:104AC000143000F0D7FB0C482060143060600A4BB3
:104AD00000202833009003F1500210210A2000F03A
:104AE000FEFEA06010B105A100F094FCBDE83840C6
:104AF00000F012BC74000020CC060020546D7251EE
:104B00000000000030B4026C0B46002A0BD0C168D4
:104B10001144C1604468A14201D30168C16030BC46
:104B20001846FBF7CEBC30BC70472DE9F041856BD1
:104B3000174604460026026C82B1C7B1E068FBF755
:104B4000C0FCE168206C091AE1602268914202D23F
:104B50006168081AE060022F16D017E02068A8B933
:104B6000606801F047FB0646002060600EE0A06828
:104B7000FBF7A7FC216CA0680844A060616888422C
:104B800004D32068A06001E005B16D1E6D1CA56313
:104B90003046BDE8F08110B5044690F8590058B190
:104BA00001280CD002280FD0502080F31188BFF3C9
:104BB0004F8FBFF36F8FFEE7206B00F0C1FB2046E5
:104BC000BDE8104000F0BCBB10BD00000F4842F231
:104BD0002831420705D0C01D0C4A20F00700821A78
:104BE000891A0B4A00230144C2E900030839103A2C
:104BF00021F0070111604B600B600B1AC0E9001334
:104C000093604FF000405360D06070479C0E0020CE
:104C10009C000020144E154CA6F29C474FF0805883
:104C2000DFF84C9012E000BF00F056FBF068C5685A
:104C3000281D00F0F5FA2069401E2061E068401E42
:104C4000E06000F069FB2846FFF7A5FFE068002858
:104C5000EAD138680128F9D9C9F80080BFF34F8F2D
:104C6000BFF36F8FF2E70000A40600203800002099
:104C700004ED00E070B51D46049C51B1C4F800205D
:104C8000C4E90F010121204600F05CFE84F84C507D
:104C900070BD2460F4E72DE9F0470E46DDE9098494
:104CA0001746824691009946089DA522206BFBF786
:104CB0007FFC6FF00301206B01EB8701084420F0BB
:104CC0000707780707D0502080F31188BFF34F8F74
:104CD000BFF36F8FFEE72218315C82F83410315C2D
:104CE00011B1401C1028F6D3002684F84360382DFB
:104CF00000D33725E562C4E91356201D00F0C5FA3C
:104D000004F1180000F0C1FA2461C5F138006462B2
:104D1000A061666584F858604A465146384600F0FE
:104D200047FA2060B8F1000F01D0C8F80040BDE894
:104D3000F087000030B5114900E011460A68824250
:104D4000FBD34B685C18844203D140681844486028
:104D5000084643681C18944209D1084C103C24684A
:104D6000A24209D052681A4442600A68126802607E
:104D7000814200D0086030BD0460F9E79C0000204B
:104D800070B5002441600B4D0061914206D8D11AE4
:104D90008269914206D2011D686807E09A4203D2F7
:104DA000994201D3012403E0011D286800F070FA44
:104DB000204670BD7400002010B5044600F08CFA47
:104DC000A06B28B15FF0000400F0A6FA204610BDE9
:104DD0000124F9E730B589B0304D55E0049800283A
:104DE00006DADDE90601059A9047049800284BDBB6
:104DF000069C606910B1201D00F012FA02A800F0B4
:104E0000B9F8024604980A283ED2DFE800F005050A
:104E1000053D263705053D260598A1690346014451
:104E20002046FFF7ADFF00B3616A20468847E0697E
:104E3000012829D1002000900598A169002342187B
:104E40001946204601F01CFB78B9502080F31188E8
:104E5000BFF34F8FBFF36F8FFEE70598A06128B1B6
:104E6000811813462046FFF78BFF0DE0502080F39A
:104E70001188BFF34F8FBFF36F8FFEE794F82C00BC
:104E800010B9204600F05CFA002204A9A86800F0DE
:104E9000F9FE0028A2D109B030BD00007400002046
:104EA0002DE9FC410F46054600F02AFC01A800F060
:104EB00061F80446019818B101F050FABDE8FC8190
:104EC000224EAFB170680068A8B30027291B3A468C
:104ED000B06800F0DFFA01F041FA0028EED11C4979
:104EE0004FF080500860BFF34F8FBFF36F8FE5E73F
:104EF000A542EBD801F032FA30682746C068C46892
:104F0000201D00F08DF9E069012810D1A0692B4621
:104F100041193A462046FFF733FF40B100200346CF
:104F2000014600902A46204601F0AAFA20B1616AA3
:104F300020468847C2E707E0502080F31188BFF37E
:104F40004F8FBFF36F8FFEE70127BFE7740000208C
:104F500004ED00E006484168096829B14168C96864
:104F6000C9684968016370474FF0FF31FAE70000F4
:104F70003800002070B5054601F0CAF8064E044618
:104F80003069844203D200F009F8012000E00020DB
:104F900028602046346170BD74000020F8B5194DBA
:104FA0001FE0C068C4680668201D00F039F9616A16
:104FB00020468847E069012813D1A0693044B042F7
:104FC00006D924616060211D286800F061F908E0BD
:104FD00000200346014600903246204601F050FA78
:104FE00038B1286801680029DBD16968C5E900107B
:104FF000F8BD502080F31188BFF34F8FBFF36F8F40
:10500000FEE700007400002008484068401C4FF094
:10501000500080F3118804D0BFF34F8FBFF36F8F20
:10502000FEE7BFF34F8FBFF36F8FFEE7A4000020B2
:10503000074C2068016841B1C0680021D0F8000029
:10504000FFF72EFFFFF7C6FEF3E701210020F7E789
:10505000740000202DE9F041044600F03DF994F978
:10506000455004F1240609E0606A48B1304601F079
:105070003DF908B100F07EFA6D1E6DB2002DF3DC33
:105080004FF0FF3684F8456000F046F900F024F94F
:1050900094F9445004F1100709E0206948B13846FA
:1050A00001F024F908B100F065FA6D1E6DB2002D13
:1050B000F3DC84F84460BDE8F04100F02DB9000055
:1050C0002DE9F0410546002700F01AFB314E30680B
:1050D00008B9FFF77BFDF06805424BD1C5B3083531
:1050E00068070ED005F00700C0F108000544680706
:1050F00007D0502080F31188BFF34F8FBFF36F8F1D
:10510000FEE72DB37068854234D82248103001463E
:105110000C6801E020460C466168A94202D2216871
:105120000029F7D131688C4224D0076821680160DA
:1051300060680837411B10290FD96019420708D051
:10514000502080F31188BFF34F8FBFF36F8FFEE7BE
:1051500010E041606560FFF7EDFD61687068401A1E
:105160007060B268904200D2B060F06801430020E5
:10517000C4E9000101F0F2F8780707D0502080F36D
:105180001188BFF34F8FBFF36F8FFEE73846BDE83E
:10519000F08100008C0000200449086818B10868FC
:1051A000026D521C0265086870470000380000203C
:1051B00010B5031F4FF080741C601B1F21F001010C
:1051C0001960191F024B0B60143940380A6010BD7A
:1051D000095000082DE9F04106460F4601F082FD16
:1051E000041E0D4618BF0120284320F00040C0F1E6
:1051F0007F6000F1E040C00F0ED0301C18BF0120CE
:10520000384320F00040C0F17F6000F1E040C00F63
:1052100004BF0120FBF703FA20462946BDE8F081D0
:10522000D0E9013201699A60D0E901235A604A68E5
:10523000824201D182684A60002202610868401EF1
:105240000860086870470000034B036003F15C00CE
:105250000860802010607047E4070020044B036062
:1052600003F15C0008604FF480701060704700002C
:10527000400A002000F108014FF0FF32C0E901129E
:10528000C160016100210160704700210161704728
:1052900030B50B685A1C02D000F1080202E0026926
:1052A00004E02246546825689D42FAD953684B6051
:1052B00099608A60516008610168491C016030BDD5
:1052C00042684A6093688B60936859609160086196
:1052D0000168491C01607047502080F31188BFF3BA
:1052E0004F8FBFF36F8F0A494868401C4860012800
:1052F0000CD10848006810F0FF0F07D0502080F351
:105300001188BFF34F8FBFF36F8FFEE77047000028
:10531000A400002004ED00E00849486828B1401EC0
:10532000486001D180F311887047502080F31188C4
:10533000BFF34F8FBFF36F8FFEE70000A400002084
:1053400070B5002827D0144DA0F108046168E86802
:10535000014207D1502080F31188BFF34F8FBFF374
:105360006F8FFEE722683AB1502080F31188BFF3B7
:105370004F8FBFF36F8FFEE78143616000F0C0F98C
:1053800060686968084468602046FFF7D3FCBDE8A0
:10539000704000F0E3BF70BD8C0000204FF0E020B3
:1053A00000210161816105494FF47A720968B1FBFE
:1053B000F2F1491E4161072101617047340000206C
:1053C00010B5FAF73BFF114910280ED300F1E02089
:1053D00090F8F0030A78904207D2502080F31188A9
:1053E000BFF34F8FBFF36F8FFEE7094800688968EE
:1053F00000F4E060884207D9502080F31188BFF3A1
:105400004F8FBFF36F8FFEE710BD0000A400002098
:105410000CED00E010B5084B002200BF53F83240FD
:105420001CB1521C082AF9D310BD43F8321003EB0B
:10543000C201486010BD0000C801002010B5040082
:105440000AD000F013F894F8460000280CD120464A
:10545000BDE81040FFF774BF502080F31188BFF300
:105460004F8FBFF36F8FFEE710BD0000084A002189
:1054700002EBC1035B68834206D1002042F8310091
:1054800002EBC10148607047491C0829F0D37047FE
:10549000C801002070B515460E460446FFF71CFFF4
:1054A00094F944100020491C01D184F8440094F977
:1054B0004510491C01D184F84500FFF72DFFA06B72
:1054C00028B92A46314604F1240000F071F820463C
:1054D000BDE87040FFF7BEBD70B50D4604000BD0AF
:1054E00095B11E4A906BB8B1502080F31188BFF37C
:1054F0004F8FBFF36F8FFEE7502080F31188BFF30B
:105500004F8FBFF36F8FFEE7502080F31188BFF3FA
:105510004F8FBFF36F8FFEE700F0F2F852692368F8
:105520005919934204D98B420AD9914202D807E013
:105530008B42FAD9881A21600021FFF721FA00E096
:10554000216000F00BFF002807D105494FF0805083
:105550000860BFF34F8FBFF36F8F70BD380000201E
:1055600004ED00E002498A6A0260496941607047BF
:1055700038000020014901204862704738000020AF
:1055800010B50C4650B1094909681831FFF780FE83
:105590002046BDE810400121FFF7F2B9502080F30A
:1055A0001188BFF34F8FBFF36F8FFEE738000020E5
:1055B00070B514460D4668B10A4909681831FFF7FD
:1055C0007FFE0CB14FF0FF3521462846BDE8704004
:1055D000FFF7D6B9502080F31188BFF34F8FBFF388
:1055E0006F8FFEE73800002070B504003ED0226DBA
:1055F000A2B1E06C884200D30146E06A884235D00F
:10560000012A33D11A4D2A6894420FD1502080F3D9
:105610001188BFF34F8FBFF36F8FFEE7502080F3E9
:105620001188BFF34F8FBFF36F8FFEE7E162A2696E
:10563000002A02DBC1F13801A1610E4E00EB8000AF
:10564000616906EB8000814210D1201DFFF7E8FD63
:10565000E06AA969884200D9A86100EB800006EBE6
:105660008000211DBDE87040FFF72ABE70BD00001C
:10567000380000200802002030B587B000240394D1
:1056800005AA04A903A80494FFF7DEFDDDE90301E0
:105690000094CDE90110002315A11748059A00F0E8
:1056A000FEFC164D002868631FD000F0B9FE0128EB
:1056B00009D0401C19D1502080F31188BFF34F8FBF
:1056C000BFF36F8FFEE7502080F31188BFF34F8F39
:1056D000BFF36F8F4FF0FF3028630120E8616C61EA
:1056E00007B0BDE8304000F045B807B030BD00005D
:1056F00049444C4500000000154C000838000020CB
:105700000248816B491C816370470000380000200B
:10571000164810B5816B11B10121416210BD002105
:1057200041628169124A01E0B9B1491E01EB81036E
:1057300052F82330002BF7D001EB810302EB8302F8
:1057400002F1080453685B685360A34201D15B68AF
:105750005360DA680260816110BD502080F31188C7
:10576000BFF34F8FBFF36F8FFEE7000038000020BC
:10577000080200201CB5264908780190FF20087017
:1057800008788DF800009DF800009DF8002000F0DA
:10579000F000904207D0502080F31188BFF34F8F64
:1057A000BFF36F8FFEE79DF800001A4B00F050002A
:1057B00018700720986005E09DF8002052008DF8D1
:1057C0000020401E9DF800201206F5D498600328A2
:1057D00007D0502080F31188BFF34F8FBFF36F8F36
:1057E000FEE74FF440709860019808700A4801681D
:1057F00041F470010160016841F070410160FFF700
:10580000CDFD00205860FAF7E3FC00201CBD00002D
:1058100000E400E0A400002020ED00E010B50C46FC
:1058200048B184420FD9502080F31188BFF34F8FC5
:10583000BFF36F8FFEE7502080F31188BFF34F8FC7
:10584000BFF36F8FFEE70222002100F024F800284A
:1058500000D0846310BD38B50C4648B184420FD9DE
:10586000502080F31188BFF34F8FBFF36F8FFEE797
:10587000502080F31188BFF34F8FBFF36F8FFEE787
:105880000221134600220091114600F028F800285A
:1058900000D0846338BDF8B517460E46050014D015
:1058A000DEB105FB06F05030FFF70AFC04000AD019
:1058B000002084F8460004F150023B463146284659
:1058C0000094FFF7D7F92046F8BD502080F31188E7
:1058D000BFF34F8FBFF36F8FFEE70020E3E738B5CC
:1058E000049D18B153B1CAB181B120E0502080F3BA
:1058F0001188BFF34F8FBFF36F8FFEE7502080F307
:105900001188BFF34F8FBFF36F8FFEE7502080F3F6
:105910001188BFF34F8FBFF36F8FFEE739B150206F
:1059200080F31188BFF34F8FBFF36F8FFEE75024D2
:105930001C46012384F846302B460094FFF79AF961
:10594000204638BD70B50D46040025D0FFF7C4FCD5
:10595000D4E90F20216802FB001161600021A163DE
:105960002168A1600A46D4E90F01401E00FB012115
:10597000E16021464FF0FF3001F8440F487004F118
:1059800010008DB1FFF776FC04F12400FFF772FCE4
:10599000FFF7C2FC012070BD502080F31188BFF3D7
:1059A0004F8FBFF36F8FFEE721690029F0D000F021
:1059B0009DFC0028ECD004494FF080500860BFF3F4
:1059C0004F8FBFF36F8FE3E704ED00E02DE9FF4752
:1059D00082B01D468A464FF00008040003D0BAF199
:1059E000000F08D011E0502080F31188BFF34F8FD3
:1059F000BFF36F8FFEE7206C38B1502080F3118821
:105A0000BFF34F8FBFF36F8FFEE7022D0AD1E06B1C
:105A1000012807D0502080F31188BFF34F8FBFF3C8
:105A20006F8FFEE700F066FB3F4F4FF000094FF02D
:105A3000805648B9049838B1502080F31188BFF3DC
:105A40004F8FBFF36F8FFEE7FFF746FCA06BE16B54
:105A5000884207D3022D05D00498D0B1B8F1000FC9
:105A60001AD01EE02A4651462046FFF75EF8616ACA
:105A700019B104F1240000F039FC20B13E60BFF3FD
:105A80004F8FBFF36F8FFFF747FC012006B0BDE8D3
:105A9000F087FFF741FC22E06846FFF763FD4FF017
:105AA0000108FFF739FCFFF72BFEFFF715FC94F90F
:105AB0004400401C01D184F8449094F94500401CF6
:105AC00001D184F84590FFF727FC04A9684600F04F
:105AD0007FFA30B12046FFF7BDFA00F03FFC00200E
